{
  "contractName": "Crowdsale",
  "abi": [
    {
      "constant": true,
      "inputs": [],
      "name": "endBlock",
      "outputs": [
        {
          "name": "",
          "type": "uint256"
        }
      ],
      "payable": false,
      "stateMutability": "view",
      "type": "function"
    },
    {
      "constant": true,
      "inputs": [],
      "name": "rate",
      "outputs": [
        {
          "name": "",
          "type": "uint256"
        }
      ],
      "payable": false,
      "stateMutability": "view",
      "type": "function"
    },
    {
      "constant": true,
      "inputs": [],
      "name": "weiRaised",
      "outputs": [
        {
          "name": "",
          "type": "uint256"
        }
      ],
      "payable": false,
      "stateMutability": "view",
      "type": "function"
    },
    {
      "constant": true,
      "inputs": [],
      "name": "startBlock",
      "outputs": [
        {
          "name": "",
          "type": "uint256"
        }
      ],
      "payable": false,
      "stateMutability": "view",
      "type": "function"
    },
    {
      "constant": true,
      "inputs": [],
      "name": "wallet",
      "outputs": [
        {
          "name": "",
          "type": "address"
        }
      ],
      "payable": false,
      "stateMutability": "view",
      "type": "function"
    },
    {
      "constant": true,
      "inputs": [],
      "name": "token",
      "outputs": [
        {
          "name": "",
          "type": "address"
        }
      ],
      "payable": false,
      "stateMutability": "view",
      "type": "function"
    },
    {
      "inputs": [
        {
          "name": "_startBlock",
          "type": "uint256"
        },
        {
          "name": "_endBlock",
          "type": "uint256"
        },
        {
          "name": "_rate",
          "type": "uint256"
        },
        {
          "name": "_wallet",
          "type": "address"
        }
      ],
      "payable": false,
      "stateMutability": "nonpayable",
      "type": "constructor"
    },
    {
      "payable": true,
      "stateMutability": "payable",
      "type": "fallback"
    },
    {
      "anonymous": false,
      "inputs": [
        {
          "indexed": true,
          "name": "purchaser",
          "type": "address"
        },
        {
          "indexed": true,
          "name": "beneficiary",
          "type": "address"
        },
        {
          "indexed": false,
          "name": "value",
          "type": "uint256"
        },
        {
          "indexed": false,
          "name": "amount",
          "type": "uint256"
        }
      ],
      "name": "TokenPurchase",
      "type": "event"
    },
    {
      "constant": false,
      "inputs": [
        {
          "name": "beneficiary",
          "type": "address"
        }
      ],
      "name": "buyTokens",
      "outputs": [],
      "payable": true,
      "stateMutability": "payable",
      "type": "function"
    },
    {
      "constant": true,
      "inputs": [],
      "name": "hasEnded",
      "outputs": [
        {
          "name": "",
          "type": "bool"
        }
      ],
      "payable": false,
      "stateMutability": "view",
      "type": "function"
    },
    {
      "constant": true,
      "inputs": [],
      "name": "CURRENT",
      "outputs": [
        {
          "name": "",
          "type": "uint256"
        }
      ],
      "payable": false,
      "stateMutability": "view",
      "type": "function"
    }
  ],
  "bytecode": "0x608060405234801561001057600080fd5b506040516080806118cb833981018060405281019080805190602001909291908051906020019092919080519060200190929190805190602001909291905050508383101515156100c9576040517f08c379a00000000000000000000000000000000000000000000000000000000081526004018080602001828103825260188152602001807f4542206973206e6f7420686967686572207468616e205342000000000000000081525060200191505060405180910390fd5b600082111515610141576040517f08c379a00000000000000000000000000000000000000000000000000000000081526004018080602001828103825260158152602001807f52617465206d75737420626520706f736974697665000000000000000000000081525060200191505060405180910390fd5b60008173ffffffffffffffffffffffffffffffffffffffff16141515156101d0576040517f08c379a000000000000000000000000000000000000000000000000000000000815260040180806020018281038252601a8152602001807f46756e64732077616c6c65742063616e6e6f742062652030783000000000000081525060200191505060405180910390fd5b6101e7610285640100000000026401000000009004565b6000806101000a81548173ffffffffffffffffffffffffffffffffffffffff021916908373ffffffffffffffffffffffffffffffffffffffff16021790555083600181905550826002819055508160048190555080600360006101000a81548173ffffffffffffffffffffffffffffffffffffffff021916908373ffffffffffffffffffffffffffffffffffffffff160217905550505050506102c1565b600061028f6102b1565b604051809103906000f0801580156102ab573d6000803e3d6000fd5b50905090565b604051610f11806109ba83390190565b6106ea806102d06000396000f300608060405260043610610099576000357c0100000000000000000000000000000000000000000000000000000000900463ffffffff168063083c6323146100a45780632c4e722e146100cf5780634042b66f146100fa57806348cd4cb114610125578063521eb27314610150578063d274980e146101a7578063ec8ac4d8146101d2578063ecb70fb714610208578063fc0c546a14610237575b6100a23361028e565b005b3480156100b057600080fd5b506100b961054b565b6040518082815260200191505060405180910390f35b3480156100db57600080fd5b506100e4610551565b6040518082815260200191505060405180910390f35b34801561010657600080fd5b5061010f610557565b6040518082815260200191505060405180910390f35b34801561013157600080fd5b5061013a61055d565b6040518082815260200191505060405180910390f35b34801561015c57600080fd5b50610165610563565b604051808273ffffffffffffffffffffffffffffffffffffffff1673ffffffffffffffffffffffffffffffffffffffff16815260200191505060405180910390f35b3480156101b357600080fd5b506101bc610589565b6040518082815260200191505060405180910390f35b610206600480360381019080803573ffffffffffffffffffffffffffffffffffffffff16906020019092919050505061028e565b005b34801561021457600080fd5b5061021d610591565b604051808215151515815260200191505060405180910390f35b34801561024357600080fd5b5061024c61059d565b604051808273ffffffffffffffffffffffffffffffffffffffff1673ffffffffffffffffffffffffffffffffffffffff16815260200191505060405180910390f35b60008060008373ffffffffffffffffffffffffffffffffffffffff1614151515610320576040517f08c379a00000000000000000000000000000000000000000000000000000000081526004018080602001828103825260078152602001807f4953205a454f520000000000000000000000000000000000000000000000000081525060200191505060405180910390fd5b6103286105c2565b151561039c576040517f08c379a00000000000000000000000000000000000000000000000000000000081526004018080602001828103825260098152602001807f494e56414c49442050000000000000000000000000000000000000000000000081525060200191505060405180910390fd5b3491506103b4600454836105fa90919063ffffffff16565b90506103cb8260055461063590919063ffffffff16565b6005819055506000809054906101000a900473ffffffffffffffffffffffffffffffffffffffff1673ffffffffffffffffffffffffffffffffffffffff166340c10f1984836040518363ffffffff167c0100000000000000000000000000000000000000000000000000000000028152600401808373ffffffffffffffffffffffffffffffffffffffff1673ffffffffffffffffffffffffffffffffffffffff16815260200182815260200192505050602060405180830381600087803b15801561049557600080fd5b505af11580156104a9573d6000803e3d6000fd5b505050506040513d60208110156104bf57600080fd5b8101908080519060200190929190505050508273ffffffffffffffffffffffffffffffffffffffff163373ffffffffffffffffffffffffffffffffffffffff167f623b3804fa71d67900d064613da8f94b9617215ee90799290593e1745087ad188484604051808381526020018281526020019250505060405180910390a3610546610653565b505050565b60025481565b60045481565b60055481565b60015481565b600360009054906101000a900473ffffffffffffffffffffffffffffffffffffffff1681565b600043905090565b60006002544311905090565b6000809054906101000a900473ffffffffffffffffffffffffffffffffffffffff1681565b60008060008043925060015483101580156105df57506002548311155b9150600034141590508180156105f25750805b935050505090565b600080600084141561060f576000915061062e565b828402905082848281151561062057fe5b0414151561062a57fe5b8091505b5092915050565b600080828401905083811015151561064957fe5b8091505092915050565b600360009054906101000a900473ffffffffffffffffffffffffffffffffffffffff1673ffffffffffffffffffffffffffffffffffffffff166108fc349081150290604051600060405180830381858888f193505050501580156106bb573d6000803e3d6000fd5b505600a165627a7a72305820fcb1afc1eeaf2f4fcf450e7b557fa5d051ea823458719d46aa55c0953e1681fb002960806040526000600360146101000a81548160ff02191690831515021790555033600360006101000a81548173ffffffffffffffffffffffffffffffffffffffff021916908373ffffffffffffffffffffffffffffffffffffffff160217905550610ea28061006f6000396000f3006080604052600436106100af576000357c0100000000000000000000000000000000000000000000000000000000900463ffffffff16806305d2035b146100b4578063095ea7b3146100e357806318160ddd1461014857806323b872dd1461017357806340c10f19146101f857806370a082311461025d5780637d64bcb4146102b45780638da5cb5b146102e3578063a9059cbb1461033a578063dd62ed3e1461039f578063f2fde38b14610416575b600080fd5b3480156100c057600080fd5b506100c9610459565b604051808215151515815260200191505060405180910390f35b3480156100ef57600080fd5b5061012e600480360381019080803573ffffffffffffffffffffffffffffffffffffffff1690602001909291908035906020019092919050505061046c565b604051808215151515815260200191505060405180910390f35b34801561015457600080fd5b5061015d6105f3565b6040518082815260200191505060405180910390f35b34801561017f57600080fd5b506101de600480360381019080803573ffffffffffffffffffffffffffffffffffffffff169060200190929190803573ffffffffffffffffffffffffffffffffffffffff169060200190929190803590602001909291905050506105f9565b604051808215151515815260200191505060405180910390f35b34801561020457600080fd5b50610243600480360381019080803573ffffffffffffffffffffffffffffffffffffffff169060200190929190803590602001909291905050506108a9565b604051808215151515815260200191505060405180910390f35b34801561026957600080fd5b5061029e600480360381019080803573ffffffffffffffffffffffffffffffffffffffff169060200190929190505050610a2b565b6040518082815260200191505060405180910390f35b3480156102c057600080fd5b506102c9610a74565b604051808215151515815260200191505060405180910390f35b3480156102ef57600080fd5b506102f8610b20565b604051808273ffffffffffffffffffffffffffffffffffffffff1673ffffffffffffffffffffffffffffffffffffffff16815260200191505060405180910390f35b34801561034657600080fd5b50610385600480360381019080803573ffffffffffffffffffffffffffffffffffffffff16906020019092919080359060200190929190505050610b46565b604051808215151515815260200191505060405180910390f35b3480156103ab57600080fd5b50610400600480360381019080803573ffffffffffffffffffffffffffffffffffffffff169060200190929190803573ffffffffffffffffffffffffffffffffffffffff169060200190929190505050610ce1565b6040518082815260200191505060405180910390f35b34801561042257600080fd5b50610457600480360381019080803573ffffffffffffffffffffffffffffffffffffffff169060200190929190505050610d68565b005b600360149054906101000a900460ff1681565b6000808214806104f857506000600260003373ffffffffffffffffffffffffffffffffffffffff1673ffffffffffffffffffffffffffffffffffffffff16815260200190815260200160002060008573ffffffffffffffffffffffffffffffffffffffff1673ffffffffffffffffffffffffffffffffffffffff16815260200190815260200160002054145b151561050357600080fd5b81600260003373ffffffffffffffffffffffffffffffffffffffff1673ffffffffffffffffffffffffffffffffffffffff16815260200190815260200160002060008573ffffffffffffffffffffffffffffffffffffffff1673ffffffffffffffffffffffffffffffffffffffff168152602001908152602001600020819055508273ffffffffffffffffffffffffffffffffffffffff163373ffffffffffffffffffffffffffffffffffffffff167f8c5be1e5ebec7d5bd14f71427d1e84f3dd0314c0f7b2291e5b200ac8c7c3b925846040518082815260200191505060405180910390a36001905092915050565b60005481565b600080600260008673ffffffffffffffffffffffffffffffffffffffff1673ffffffffffffffffffffffffffffffffffffffff16815260200190815260200160002060003373ffffffffffffffffffffffffffffffffffffffff1673ffffffffffffffffffffffffffffffffffffffff1681526020019081526020016000205490506106cd83600160008773ffffffffffffffffffffffffffffffffffffffff1673ffffffffffffffffffffffffffffffffffffffff16815260200190815260200160002054610e3f90919063ffffffff16565b600160008673ffffffffffffffffffffffffffffffffffffffff1673ffffffffffffffffffffffffffffffffffffffff1681526020019081526020016000208190555061076283600160008873ffffffffffffffffffffffffffffffffffffffff1673ffffffffffffffffffffffffffffffffffffffff16815260200190815260200160002054610e5d90919063ffffffff16565b600160008773ffffffffffffffffffffffffffffffffffffffff1673ffffffffffffffffffffffffffffffffffffffff168152602001908152602001600020819055506107b88382610e5d90919063ffffffff16565b600260008773ffffffffffffffffffffffffffffffffffffffff1673ffffffffffffffffffffffffffffffffffffffff16815260200190815260200160002060003373ffffffffffffffffffffffffffffffffffffffff1673ffffffffffffffffffffffffffffffffffffffff168152602001908152602001600020819055508373ffffffffffffffffffffffffffffffffffffffff168573ffffffffffffffffffffffffffffffffffffffff167fddf252ad1be2c89b69c2b068fc378daa952ba7f163c4a11628f55a4df523b3ef856040518082815260200191505060405180910390a360019150509392505050565b6000600360009054906101000a900473ffffffffffffffffffffffffffffffffffffffff1673ffffffffffffffffffffffffffffffffffffffff163373ffffffffffffffffffffffffffffffffffffffff1614151561090757600080fd5b600360149054906101000a900460ff1615151561092357600080fd5b61093882600054610e3f90919063ffffffff16565b60008190555061099082600160008673ffffffffffffffffffffffffffffffffffffffff1673ffffffffffffffffffffffffffffffffffffffff16815260200190815260200160002054610e3f90919063ffffffff16565b600160008573ffffffffffffffffffffffffffffffffffffffff1673ffffffffffffffffffffffffffffffffffffffff168152602001908152602001600020819055508273ffffffffffffffffffffffffffffffffffffffff167f0f6798a560793a54c3bcfe86a93cde1e73087d944c0ea20544137d4121396885836040518082815260200191505060405180910390a26001905092915050565b6000600160008373ffffffffffffffffffffffffffffffffffffffff1673ffffffffffffffffffffffffffffffffffffffff168152602001908152602001600020549050919050565b6000600360009054906101000a900473ffffffffffffffffffffffffffffffffffffffff1673ffffffffffffffffffffffffffffffffffffffff163373ffffffffffffffffffffffffffffffffffffffff16141515610ad257600080fd5b6001600360146101000a81548160ff0219169083151502179055507fae5184fba832cb2b1f702aca6117b8d265eaf03ad33eb133f19dde0f5920fa0860405160405180910390a16001905090565b600360009054906101000a900473ffffffffffffffffffffffffffffffffffffffff1681565b6000610b9a82600160003373ffffffffffffffffffffffffffffffffffffffff1673ffffffffffffffffffffffffffffffffffffffff16815260200190815260200160002054610e5d90919063ffffffff16565b600160003373ffffffffffffffffffffffffffffffffffffffff1673ffffffffffffffffffffffffffffffffffffffff16815260200190815260200160002081905550610c2f82600160008673ffffffffffffffffffffffffffffffffffffffff1673ffffffffffffffffffffffffffffffffffffffff16815260200190815260200160002054610e3f90919063ffffffff16565b600160008573ffffffffffffffffffffffffffffffffffffffff1673ffffffffffffffffffffffffffffffffffffffff168152602001908152602001600020819055508273ffffffffffffffffffffffffffffffffffffffff163373ffffffffffffffffffffffffffffffffffffffff167fddf252ad1be2c89b69c2b068fc378daa952ba7f163c4a11628f55a4df523b3ef846040518082815260200191505060405180910390a36001905092915050565b6000600260008473ffffffffffffffffffffffffffffffffffffffff1673ffffffffffffffffffffffffffffffffffffffff16815260200190815260200160002060008373ffffffffffffffffffffffffffffffffffffffff1673ffffffffffffffffffffffffffffffffffffffff16815260200190815260200160002054905092915050565b600360009054906101000a900473ffffffffffffffffffffffffffffffffffffffff1673ffffffffffffffffffffffffffffffffffffffff163373ffffffffffffffffffffffffffffffffffffffff16141515610dc457600080fd5b600073ffffffffffffffffffffffffffffffffffffffff168173ffffffffffffffffffffffffffffffffffffffff16141515610e3c5780600360006101000a81548173ffffffffffffffffffffffffffffffffffffffff021916908373ffffffffffffffffffffffffffffffffffffffff1602179055505b50565b6000808284019050838110151515610e5357fe5b8091505092915050565b6000828211151515610e6b57fe5b8183039050929150505600a165627a7a72305820a545a7467e558a667fc5437deb719581e55b7000d45ef8d7a98015f166bbf0710029",
  "source": "pragma solidity ^0.4.22;\n\nimport './KYLToken.sol';\n\ncontract Crowdsale {\n    using SafeMath for uint256;       \n\n    // The token being sold\n    MintableToken public token;\n\n    // start and end block where investments are allowed (both inclusive)\n    uint256 public startBlock;\n    uint256 public endBlock;\n\n    // address where funds are collected\n    address public wallet;\n\n    // how many token units a buyer gets per wei\n    uint256 public rate;\n\n    // amount of raised money in wei\n    uint256 public weiRaised;\n\n    /**\n    * event for token purchase logging\n    * @param purchaser who paid for the tokens\n    * @param beneficiary who got the tokens\n    * @param value weis paid for purchase\n    * @param amount amount of tokens purchased\n    */\n    event TokenPurchase(address indexed purchaser, address indexed beneficiary, uint256 value, uint256 amount);\n\n    constructor (uint256 _startBlock, uint256 _endBlock, uint256 _rate, address _wallet) public {\n        //require(_startBlock >= block.number, \"Actual Block is higher\");\n        require(_endBlock >= _startBlock, \"EB is not higher than SB\");\n        require(_rate > 0, \"Rate must be positive\");\n        require(_wallet != 0x0, \"Funds wallet cannot be 0x0\");\n\n        token = createTokenContract();\n        startBlock = _startBlock;\n        endBlock = _endBlock;\n        rate = _rate;\n        wallet = _wallet;\n    }\n\n    // creates the token to be sold.\n    // override this method to have crowdsale of a specific mintable token.\n    function createTokenContract() internal returns (MintableToken) {\n        return new MintableToken();\n    }\n\n    // fallback function can be used to buy tokens\n    function () public payable {\n        buyTokens(msg.sender);\n    }\n\n    // low level token purchase function\n    function buyTokens(address beneficiary) public payable {\n        require(beneficiary != 0x0, \"IS ZEOR\");\n        require(validPurchase(), \"INVALID P\");\n\n        uint256 weiAmount = msg.value;\n\n        // calculate token amount to be created\n        uint256 tokens = weiAmount.mul(rate);\n        // update state\n        weiRaised = weiRaised.add(weiAmount);\n\n        token.mint(beneficiary, tokens);\n        emit TokenPurchase(msg.sender, beneficiary, weiAmount, tokens);\n        forwardFunds();\n    }\n\n    // send ether to the fund collection wallet\n    // override to create custom fund forwarding mechanisms\n    function forwardFunds() internal {\n        wallet.transfer(msg.value);\n    }\n\n    // @return true if the transaction can buy tokens\n    function validPurchase() internal view returns (bool) {\n        uint256 current = block.number;\n        bool withinPeriod = current >= startBlock && current <= endBlock;\n        bool nonZeroPurchase = msg.value != 0;\n        return withinPeriod && nonZeroPurchase;\n    }\n\n    // @return true if crowdsale event has ended\n    function hasEnded() public view returns (bool) {\n        return block.number > endBlock;\n    }\n    \n    function CURRENT() public view returns(uint){\n        return block.number;\n    }\n}\n\ncontract WhitelistedCrowdsale is Crowdsale, Ownable {\n    mapping (address => bool) whitelist;\n\n    function addToWhitelist(address buyer) public onlyOwner {\n        require(buyer != 0x0, \"Invalid Address\");\n        whitelist[buyer] = true;\n    }\n\n    function isWhitelisted(address buyer) public view returns (bool) {\n        return whitelist[buyer];\n    }\n\n    function validPurchase() internal view returns (bool) {\n        bool isValid = (!hasEnded()) && isWhitelisted(msg.sender);\n        return super.validPurchase() || isValid;\n    }\n}\n\ncontract CappedCrowdsale is Crowdsale {\n    uint256 public cap;\n\n    constructor(uint256 _cap) public {\n        require(_cap > 0);\n        cap = _cap;\n    }\n    \n    function validPurchase() internal constant returns (bool) {\n        bool withinCap = weiRaised.add(msg.value) <= cap;\n        return super.validPurchase() && withinCap;\n    }\n\n    function hasEnded() public constant returns (bool) {\n        bool capReached = weiRaised >= cap;\n        return super.hasEnded() || capReached;\n    }\n}\n\ncontract KYLCrowdsale is WhitelistedCrowdsale, CappedCrowdsale{\n    //custom rate for each whitelisted buyer\n    mapping(address => uint256) buyerRate;\n     \n    event PreferentialRateChange(address indexed buyer, uint256 rate);\n    event InitialRateChange(uint256 rate);\n    event EndRateChange(uint256 rate);\n    \n    uint256 preRate;\n    uint256 iniRate;\n    uint256 endRate;\n\n    enum phase{EA, pICO, ICO}\n    phase public stage;\n    \n    constructor(\n        uint256 _startBlock,\n        uint256 _endBlock,\n        uint256 _preRate,\n        uint256 _iniRate,\n        uint256 _endRate,\n        address wallet\n    )\n        public \n        Crowdsale(_startBlock, _endBlock, _iniRate, wallet)\n        WhitelistedCrowdsale()\n        CappedCrowdsale(100 ether)\n    {\n        require(_iniRate > 0 && _endRate > 0 && _preRate > 0, \"Rate is zero\");\n        preRate = _preRate;\n        iniRate = _iniRate;\n        endRate = _endRate;\n        stage = phase.EA;\n    }\n\n    /** general functions */\n    function getRate() public view returns(uint256){\n        if (buyerRate[msg.sender] != 0) {\n            return buyerRate[msg.sender];\n        }\n\n        if (isWhitelisted(msg.sender)) {\n            return preRate;\n        }\n\n        uint256 elapsed = block.number - startBlock;\n        uint256 rateRange = iniRate - endRate;\n        uint256 blockRange = endBlock - startBlock;\n        return iniRate.sub(rateRange.mul(elapsed).div(blockRange));\n    }\n\n    /**early access: whitelisting */\n    /** override */\n    function addToWhitelist(address buyer) public onlyOwner {\n        require(stage == phase.EA, \"Early Access Finished\");\n        super.addToWhitelist(buyer);\n    }\n    \n    function setPreferentialRate(address buyer, uint256 rate) public onlyOwner{\n        require(stage == phase.EA, \"Early access finished\");\n        require(isWhitelisted(buyer), \"Address not whitelisted\");\n        require(rate != 0, \"Rate cannot be zero\");\n\n        buyerRate[buyer] = rate;\n        emit PreferentialRateChange(buyer, rate);\n    }\n\n    /**preico access */\n    function buyTokens(address who) public payable{\n        require(stage != phase.EA, \"Cannot buy tokens in actual phase\");\n        require(who != 0x0, \"Invalid address\");\n        require(validPurchase(), \"Invalid purchase\");\n\n        uint256 value = msg.value;\n        uint256 rate = getRate();\n        uint256 tokens = value.mul(rate);\n\n        weiRaised = weiRaised.add(value);\n\n        token.mint(who, tokens);\n        emit TokenPurchase(msg.sender, who, value, tokens);\n        \n        forwardFunds();\n    }\n\n    function hasEnded() public view returns(bool){\n        return super.hasEnded();\n    }\n}\n\n//envias kyl coins",
  "sourcePath": "C:\\Users\\Sebastian\\Desktop\\KAPYTAL\\KYL Test\\contracts\\KYLCrowdsale.sol",
  "compiler": {
    "name": "solc",
    "version": "0.4.24+commit.e67f0147.Emscripten.clang"
  },
  "schemaVersion": "2.0.1",
  "updatedAt": "2018-07-10T22:38:57.820Z"
}