{
  "contractName": "KYLCrowdsale",
  "abi": [
    {
      "constant": true,
      "inputs": [],
      "name": "endBlock",
      "outputs": [
        {
          "name": "",
          "type": "uint256"
        }
      ],
      "payable": false,
      "stateMutability": "view",
      "type": "function"
    },
    {
      "constant": true,
      "inputs": [],
      "name": "rate",
      "outputs": [
        {
          "name": "",
          "type": "uint256"
        }
      ],
      "payable": false,
      "stateMutability": "view",
      "type": "function"
    },
    {
      "constant": true,
      "inputs": [],
      "name": "cap",
      "outputs": [
        {
          "name": "",
          "type": "uint256"
        }
      ],
      "payable": false,
      "stateMutability": "view",
      "type": "function"
    },
    {
      "constant": true,
      "inputs": [
        {
          "name": "buyer",
          "type": "address"
        }
      ],
      "name": "isWhitelisted",
      "outputs": [
        {
          "name": "",
          "type": "bool"
        }
      ],
      "payable": false,
      "stateMutability": "view",
      "type": "function"
    },
    {
      "constant": false,
      "inputs": [],
      "name": "unpause",
      "outputs": [
        {
          "name": "",
          "type": "bool"
        }
      ],
      "payable": false,
      "stateMutability": "nonpayable",
      "type": "function"
    },
    {
      "constant": true,
      "inputs": [],
      "name": "weiRaised",
      "outputs": [
        {
          "name": "",
          "type": "uint256"
        }
      ],
      "payable": false,
      "stateMutability": "view",
      "type": "function"
    },
    {
      "constant": true,
      "inputs": [],
      "name": "startBlock",
      "outputs": [
        {
          "name": "",
          "type": "uint256"
        }
      ],
      "payable": false,
      "stateMutability": "view",
      "type": "function"
    },
    {
      "constant": true,
      "inputs": [],
      "name": "wallet",
      "outputs": [
        {
          "name": "",
          "type": "address"
        }
      ],
      "payable": false,
      "stateMutability": "view",
      "type": "function"
    },
    {
      "constant": true,
      "inputs": [],
      "name": "paused",
      "outputs": [
        {
          "name": "",
          "type": "bool"
        }
      ],
      "payable": false,
      "stateMutability": "view",
      "type": "function"
    },
    {
      "constant": false,
      "inputs": [],
      "name": "pause",
      "outputs": [
        {
          "name": "",
          "type": "bool"
        }
      ],
      "payable": false,
      "stateMutability": "nonpayable",
      "type": "function"
    },
    {
      "constant": true,
      "inputs": [],
      "name": "owner",
      "outputs": [
        {
          "name": "",
          "type": "address"
        }
      ],
      "payable": false,
      "stateMutability": "view",
      "type": "function"
    },
    {
      "constant": true,
      "inputs": [],
      "name": "stage",
      "outputs": [
        {
          "name": "",
          "type": "uint8"
        }
      ],
      "payable": false,
      "stateMutability": "view",
      "type": "function"
    },
    {
      "constant": false,
      "inputs": [
        {
          "name": "buyer",
          "type": "address"
        }
      ],
      "name": "addToWhitelist",
      "outputs": [],
      "payable": false,
      "stateMutability": "nonpayable",
      "type": "function"
    },
    {
      "constant": true,
      "inputs": [],
      "name": "hasEnded",
      "outputs": [
        {
          "name": "",
          "type": "bool"
        }
      ],
      "payable": false,
      "stateMutability": "view",
      "type": "function"
    },
    {
      "constant": false,
      "inputs": [
        {
          "name": "newOwner",
          "type": "address"
        }
      ],
      "name": "transferOwnership",
      "outputs": [],
      "payable": false,
      "stateMutability": "nonpayable",
      "type": "function"
    },
    {
      "constant": true,
      "inputs": [],
      "name": "token",
      "outputs": [
        {
          "name": "",
          "type": "address"
        }
      ],
      "payable": false,
      "stateMutability": "view",
      "type": "function"
    },
    {
      "inputs": [
        {
          "name": "_startBlock",
          "type": "uint256"
        },
        {
          "name": "_endBlock",
          "type": "uint256"
        },
        {
          "name": "_fixRate",
          "type": "uint256"
        },
        {
          "name": "_airdropCap",
          "type": "uint256"
        },
        {
          "name": "wallet",
          "type": "address"
        }
      ],
      "payable": false,
      "stateMutability": "nonpayable",
      "type": "constructor"
    },
    {
      "payable": true,
      "stateMutability": "payable",
      "type": "fallback"
    },
    {
      "anonymous": false,
      "inputs": [],
      "name": "PreCrowdsaleStarted",
      "type": "event"
    },
    {
      "anonymous": false,
      "inputs": [],
      "name": "CrowdsaleStarted",
      "type": "event"
    },
    {
      "anonymous": false,
      "inputs": [
        {
          "indexed": false,
          "name": "rate",
          "type": "uint256"
        }
      ],
      "name": "RateChanged",
      "type": "event"
    },
    {
      "anonymous": false,
      "inputs": [
        {
          "indexed": true,
          "name": "who",
          "type": "address"
        },
        {
          "indexed": false,
          "name": "tokens",
          "type": "uint256"
        }
      ],
      "name": "ExternalPurchase",
      "type": "event"
    },
    {
      "anonymous": false,
      "inputs": [
        {
          "indexed": true,
          "name": "who",
          "type": "address"
        },
        {
          "indexed": false,
          "name": "tokens",
          "type": "uint256"
        }
      ],
      "name": "AirDroppedTokens",
      "type": "event"
    },
    {
      "anonymous": false,
      "inputs": [],
      "name": "Pause",
      "type": "event"
    },
    {
      "anonymous": false,
      "inputs": [],
      "name": "Unpause",
      "type": "event"
    },
    {
      "anonymous": false,
      "inputs": [
        {
          "indexed": true,
          "name": "purchaser",
          "type": "address"
        },
        {
          "indexed": true,
          "name": "beneficiary",
          "type": "address"
        },
        {
          "indexed": false,
          "name": "value",
          "type": "uint256"
        },
        {
          "indexed": false,
          "name": "amount",
          "type": "uint256"
        }
      ],
      "name": "TokenPurchase",
      "type": "event"
    },
    {
      "constant": false,
      "inputs": [
        {
          "name": "_rate",
          "type": "uint256"
        }
      ],
      "name": "setRate",
      "outputs": [],
      "payable": false,
      "stateMutability": "nonpayable",
      "type": "function"
    },
    {
      "constant": true,
      "inputs": [],
      "name": "getRate",
      "outputs": [
        {
          "name": "",
          "type": "uint256"
        }
      ],
      "payable": false,
      "stateMutability": "view",
      "type": "function"
    },
    {
      "constant": false,
      "inputs": [
        {
          "name": "who",
          "type": "address"
        }
      ],
      "name": "buyTokens",
      "outputs": [],
      "payable": true,
      "stateMutability": "payable",
      "type": "function"
    },
    {
      "constant": false,
      "inputs": [
        {
          "name": "who",
          "type": "address"
        },
        {
          "name": "tokens",
          "type": "uint256"
        }
      ],
      "name": "mintTo",
      "outputs": [],
      "payable": false,
      "stateMutability": "nonpayable",
      "type": "function"
    },
    {
      "constant": false,
      "inputs": [
        {
          "name": "who",
          "type": "address"
        },
        {
          "name": "tokens",
          "type": "uint256"
        },
        {
          "name": "_rate",
          "type": "uint256"
        }
      ],
      "name": "airDrop",
      "outputs": [],
      "payable": false,
      "stateMutability": "nonpayable",
      "type": "function"
    },
    {
      "constant": false,
      "inputs": [],
      "name": "nextStage",
      "outputs": [],
      "payable": false,
      "stateMutability": "nonpayable",
      "type": "function"
    },
    {
      "constant": false,
      "inputs": [],
      "name": "finalize",
      "outputs": [],
      "payable": false,
      "stateMutability": "nonpayable",
      "type": "function"
    },
    {
      "constant": false,
      "inputs": [
        {
          "name": "tokens",
          "type": "uint256"
        }
      ],
      "name": "liberate",
      "outputs": [],
      "payable": false,
      "stateMutability": "nonpayable",
      "type": "function"
    }
  ],
  "bytecode": "0x60806040526000600660146101000a81548160ff0219169083151502179055503480156200002c57600080fd5b5060405160a0806200468e83398101806040528101908080519060200190929190805190602001909291908051906020019092919080519060200190929190805190602001909291905050506901dfc26c0eb0bf0800008585858483831015151562000100576040517f08c379a00000000000000000000000000000000000000000000000000000000081526004018080602001828103825260188152602001807f4542206973206e6f7420686967686572207468616e205342000000000000000081525060200191505060405180910390fd5b60008211151562000179576040517f08c379a00000000000000000000000000000000000000000000000000000000081526004018080602001828103825260158152602001807f52617465206d75737420626520706f736974697665000000000000000000000081525060200191505060405180910390fd5b60008173ffffffffffffffffffffffffffffffffffffffff161415151562000209576040517f08c379a000000000000000000000000000000000000000000000000000000000815260040180806020018281038252601a8152602001807f46756e64732077616c6c65742063616e6e6f742062652030783000000000000081525060200191505060405180910390fd5b6200022262000445640100000000026401000000009004565b6000806101000a81548173ffffffffffffffffffffffffffffffffffffffff021916908373ffffffffffffffffffffffffffffffffffffffff16021790555083600181905550826002819055508160048190555080600360006101000a81548173ffffffffffffffffffffffffffffffffffffffff021916908373ffffffffffffffffffffffffffffffffffffffff1602179055505050505033600660006101000a81548173ffffffffffffffffffffffffffffffffffffffff021916908373ffffffffffffffffffffffffffffffffffffffff1602179055506000811115156200030c57600080fd5b80600881905550506000600960006101000a81548160ff021916908360028111156200033457fe5b0217905550670de0b6b3a76400008202600a819055506000809054906101000a900473ffffffffffffffffffffffffffffffffffffffff1673ffffffffffffffffffffffffffffffffffffffff16638456cb596040518163ffffffff167c0100000000000000000000000000000000000000000000000000000000028152600401602060405180830381600087803b158015620003d057600080fd5b505af1158015620003e5573d6000803e3d6000fd5b505050506040513d6020811015620003fc57600080fd5b8101908080519060200190929190505050507fb1dd97be97eb6bdaea11005c9af4267f88b6b8031dece9c50460b39cacdce84360405160405180910390a1505050505062000485565b60006200045162000474565b604051809103906000f0801580156200046e573d6000803e3d6000fd5b50905090565b604051611ec380620027cb83390190565b61233680620004956000396000f30060806040526004361061013e576000357c0100000000000000000000000000000000000000000000000000000000900463ffffffff168063083c6323146101495780632c4e722e1461017457806334fcf4371461019f578063355274ea146101cc5780633af32abf146101f75780633f4ba83a146102525780634042b66f14610281578063449a52f8146102ac57806348cd4cb1146102f95780634bb278f314610324578063521eb2731461033b5780635c975abb14610392578063679aefce146103c15780638456cb59146103ec5780638c7a774a1461041b5780638da5cb5b14610448578063c040e6b81461049f578063e43252d7146104d8578063ec8ac4d81461051b578063ecb70fb714610551578063ee3743ab14610580578063f2fde38b14610597578063fc0c546a146105da578063fe1c947c14610631575b61014733610688565b005b34801561015557600080fd5b5061015e610a80565b6040518082815260200191505060405180910390f35b34801561018057600080fd5b50610189610a86565b6040518082815260200191505060405180910390f35b3480156101ab57600080fd5b506101ca60048036038101908080359060200190929190505050610a8c565b005b3480156101d857600080fd5b506101e1610c9a565b6040518082815260200191505060405180910390f35b34801561020357600080fd5b50610238600480360381019080803573ffffffffffffffffffffffffffffffffffffffff169060200190929190505050610ca0565b604051808215151515815260200191505060405180910390f35b34801561025e57600080fd5b50610267610cf6565b604051808215151515815260200191505060405180910390f35b34801561028d57600080fd5b50610296610e8f565b6040518082815260200191505060405180910390f35b3480156102b857600080fd5b506102f7600480360381019080803573ffffffffffffffffffffffffffffffffffffffff16906020019092919080359060200190929190505050610e95565b005b34801561030557600080fd5b5061030e6112a0565b6040518082815260200191505060405180910390f35b34801561033057600080fd5b506103396112a6565b005b34801561034757600080fd5b506103506114d6565b604051808273ffffffffffffffffffffffffffffffffffffffff1673ffffffffffffffffffffffffffffffffffffffff16815260200191505060405180910390f35b34801561039e57600080fd5b506103a76114fc565b604051808215151515815260200191505060405180910390f35b3480156103cd57600080fd5b506103d661150f565b6040518082815260200191505060405180910390f35b3480156103f857600080fd5b50610401611519565b604051808215151515815260200191505060405180910390f35b34801561042757600080fd5b50610446600480360381019080803590602001909291905050506116b3565b005b34801561045457600080fd5b5061045d6118d0565b604051808273ffffffffffffffffffffffffffffffffffffffff1673ffffffffffffffffffffffffffffffffffffffff16815260200191505060405180910390f35b3480156104ab57600080fd5b506104b46118f6565b604051808260028111156104c457fe5b60ff16815260200191505060405180910390f35b3480156104e457600080fd5b50610519600480360381019080803573ffffffffffffffffffffffffffffffffffffffff169060200190929190505050611909565b005b61054f600480360381019080803573ffffffffffffffffffffffffffffffffffffffff169060200190929190505050610688565b005b34801561055d57600080fd5b50610566611ab8565b604051808215151515815260200191505060405180910390f35b34801561058c57600080fd5b50610595611adb565b005b3480156105a357600080fd5b506105d8600480360381019080803573ffffffffffffffffffffffffffffffffffffffff169060200190929190505050611caa565b005b3480156105e657600080fd5b506105ef611dea565b604051808273ffffffffffffffffffffffffffffffffffffffff1673ffffffffffffffffffffffffffffffffffffffff16815260200191505060405180910390f35b34801561063d57600080fd5b50610686600480360381019080803573ffffffffffffffffffffffffffffffffffffffff1690602001909291908035906020019092919080359060200190929190505050611e0f565b005b600080600660149054906101000a900460ff16151515610710576040517f08c379a000000000000000000000000000000000000000000000000000000000815260040180806020018281038252600f8152602001807f737461746520697320706175736564000000000000000000000000000000000081525060200191505060405180910390fd5b60008373ffffffffffffffffffffffffffffffffffffffff161415151561079f576040517f08c379a000000000000000000000000000000000000000000000000000000000815260040180806020018281038252600f8152602001807f496e76616c69642061646472657373000000000000000000000000000000000081525060200191505060405180910390fd5b6107a761217c565b151561081b576040517f08c379a00000000000000000000000000000000000000000000000000000000081526004018080602001828103825260108152602001807f496e76616c69642070757263686173650000000000000000000000000000000081525060200191505060405180910390fd5b6000600281111561082857fe5b600960009054906101000a900460ff16600281111561084357fe5b14156108c75761085283610ca0565b15156108c6576040517f08c379a00000000000000000000000000000000000000000000000000000000081526004018080602001828103825260178152602001807f41646472657373206e6f742077686974656c697374656400000000000000000081525060200191505060405180910390fd5b5b349150670de0b6b3a76400006108e8600454846121b290919063ffffffff16565b029050610900826005546121cd90919063ffffffff16565b6005819055506000809054906101000a900473ffffffffffffffffffffffffffffffffffffffff1673ffffffffffffffffffffffffffffffffffffffff166340c10f1984836040518363ffffffff167c0100000000000000000000000000000000000000000000000000000000028152600401808373ffffffffffffffffffffffffffffffffffffffff1673ffffffffffffffffffffffffffffffffffffffff16815260200182815260200192505050602060405180830381600087803b1580156109ca57600080fd5b505af11580156109de573d6000803e3d6000fd5b505050506040513d60208110156109f457600080fd5b8101908080519060200190929190505050508273ffffffffffffffffffffffffffffffffffffffff163373ffffffffffffffffffffffffffffffffffffffff167f623b3804fa71d67900d064613da8f94b9617215ee90799290593e1745087ad188484604051808381526020018281526020019250505060405180910390a3610a7b6121eb565b505050565b60025481565b60045481565b600660149054906101000a900460ff161515610b10576040517f08c379a00000000000000000000000000000000000000000000000000000000081526004018080602001828103825260118152602001807f737461746520697320756e70617573656400000000000000000000000000000081525060200191505060405180910390fd5b600660009054906101000a900473ffffffffffffffffffffffffffffffffffffffff1673ffffffffffffffffffffffffffffffffffffffff163373ffffffffffffffffffffffffffffffffffffffff16141515610bd5576040517f08c379a00000000000000000000000000000000000000000000000000000000081526004018080602001828103825260128152602001807f73656e6465722773206e6f74206f776e6572000000000000000000000000000081525060200191505060405180910390fd5b600081111515610c4d576040517f08c379a000000000000000000000000000000000000000000000000000000000815260040180806020018281038252600c8152602001807f52617465206973207a65726f000000000000000000000000000000000000000081525060200191505060405180910390fd5b670de0b6b3a764000081026004819055507f595a30f13a69b616c4d568e2a2b7875fdfe86e4300a049953c76ee278f8f3f106004546040518082815260200191505060405180910390a150565b60085481565b6000600760008373ffffffffffffffffffffffffffffffffffffffff1673ffffffffffffffffffffffffffffffffffffffff16815260200190815260200160002060009054906101000a900460ff169050919050565b6000600660009054906101000a900473ffffffffffffffffffffffffffffffffffffffff1673ffffffffffffffffffffffffffffffffffffffff163373ffffffffffffffffffffffffffffffffffffffff16141515610dbd576040517f08c379a00000000000000000000000000000000000000000000000000000000081526004018080602001828103825260128152602001807f73656e6465722773206e6f74206f776e6572000000000000000000000000000081525060200191505060405180910390fd5b600660149054906101000a900460ff161515610e41576040517f08c379a00000000000000000000000000000000000000000000000000000000081526004018080602001828103825260118152602001807f737461746520697320756e70617573656400000000000000000000000000000081525060200191505060405180910390fd5b6000600660146101000a81548160ff0219169083151502179055507f7805862f689e2f13df9f062ff482ad3ad112aca9e0847911ed832e158c525b3360405160405180910390a16001905090565b60055481565b6000600660009054906101000a900473ffffffffffffffffffffffffffffffffffffffff1673ffffffffffffffffffffffffffffffffffffffff163373ffffffffffffffffffffffffffffffffffffffff16141515610f5c576040517f08c379a00000000000000000000000000000000000000000000000000000000081526004018080602001828103825260128152602001807f73656e6465722773206e6f74206f776e6572000000000000000000000000000081525060200191505060405180910390fd5b60008373ffffffffffffffffffffffffffffffffffffffff1614151515610feb576040517f08c379a000000000000000000000000000000000000000000000000000000000815260040180806020018281038252600f8152602001807f496e76616c69642061646472657373000000000000000000000000000000000081525060200191505060405180910390fd5b60006002811115610ff857fe5b600960009054906101000a900460ff16600281111561101357fe5b14156110975761102283610ca0565b1515611096576040517f08c379a00000000000000000000000000000000000000000000000000000000081526004018080602001828103825260178152602001807f41646472657373206e6f742077686974656c697374656400000000000000000081525060200191505060405180910390fd5b5b6110ac6004548361225690919063ffffffff16565b90506008548111151515611128576040517f08c379a00000000000000000000000000000000000000000000000000000000081526004018080602001828103825260188152602001807f546f6b656e732076616c7565206578636565647320636170000000000000000081525060200191505060405180910390fd5b61113d816005546121cd90919063ffffffff16565b6005819055506000809054906101000a900473ffffffffffffffffffffffffffffffffffffffff1673ffffffffffffffffffffffffffffffffffffffff166340c10f1984670de0b6b3a764000085026040518363ffffffff167c0100000000000000000000000000000000000000000000000000000000028152600401808373ffffffffffffffffffffffffffffffffffffffff1673ffffffffffffffffffffffffffffffffffffffff16815260200182815260200192505050602060405180830381600087803b15801561121157600080fd5b505af1158015611225573d6000803e3d6000fd5b505050506040513d602081101561123b57600080fd5b8101908080519060200190929190505050508273ffffffffffffffffffffffffffffffffffffffff167f69181863b43a3460f1942b976f71bd5c71682839de880ae175ffbc044c886960836040518082815260200191505060405180910390a2505050565b60015481565b600660009054906101000a900473ffffffffffffffffffffffffffffffffffffffff1673ffffffffffffffffffffffffffffffffffffffff163373ffffffffffffffffffffffffffffffffffffffff1614151561136b576040517f08c379a00000000000000000000000000000000000000000000000000000000081526004018080602001828103825260128152602001807f73656e6465722773206e6f74206f776e6572000000000000000000000000000081525060200191505060405180910390fd5b600660149054906101000a900460ff1615156113ef576040517f08c379a00000000000000000000000000000000000000000000000000000000081526004018080602001828103825260118152602001807f737461746520697320756e70617573656400000000000000000000000000000081525060200191505060405180910390fd5b6002600960006101000a81548160ff0219169083600281111561140e57fe5b02179055506000809054906101000a900473ffffffffffffffffffffffffffffffffffffffff1673ffffffffffffffffffffffffffffffffffffffff16633f4ba83a6040518163ffffffff167c0100000000000000000000000000000000000000000000000000000000028152600401602060405180830381600087803b15801561149857600080fd5b505af11580156114ac573d6000803e3d6000fd5b505050506040513d60208110156114c257600080fd5b810190808051906020019092919050505050565b600360009054906101000a900473ffffffffffffffffffffffffffffffffffffffff1681565b600660149054906101000a900460ff1681565b6000600454905090565b6000600660009054906101000a900473ffffffffffffffffffffffffffffffffffffffff1673ffffffffffffffffffffffffffffffffffffffff163373ffffffffffffffffffffffffffffffffffffffff161415156115e0576040517f08c379a00000000000000000000000000000000000000000000000000000000081526004018080602001828103825260128152602001807f73656e6465722773206e6f74206f776e6572000000000000000000000000000081525060200191505060405180910390fd5b600660149054906101000a900460ff16151515611665576040517f08c379a000000000000000000000000000000000000000000000000000000000815260040180806020018281038252600f8152602001807f737461746520697320706175736564000000000000000000000000000000000081525060200191505060405180910390fd5b6001600660146101000a81548160ff0219169083151502179055507f6985a02210a168e66602d3235cb6db0e70f92b3ba4d376a33c0f3d9434bff62560405160405180910390a16001905090565b600660009054906101000a900473ffffffffffffffffffffffffffffffffffffffff1673ffffffffffffffffffffffffffffffffffffffff163373ffffffffffffffffffffffffffffffffffffffff16141515611778576040517f08c379a00000000000000000000000000000000000000000000000000000000081526004018080602001828103825260128152602001807f73656e6465722773206e6f74206f776e6572000000000000000000000000000081525060200191505060405180910390fd5b60028081111561178457fe5b600960009054906101000a900460ff16600281111561179f57fe5b1415156117ab57600080fd5b6000809054906101000a900473ffffffffffffffffffffffffffffffffffffffff1673ffffffffffffffffffffffffffffffffffffffff166340c10f19600360009054906101000a900473ffffffffffffffffffffffffffffffffffffffff16836040518363ffffffff167c0100000000000000000000000000000000000000000000000000000000028152600401808373ffffffffffffffffffffffffffffffffffffffff1673ffffffffffffffffffffffffffffffffffffffff16815260200182815260200192505050602060405180830381600087803b15801561189157600080fd5b505af11580156118a5573d6000803e3d6000fd5b505050506040513d60208110156118bb57600080fd5b81019080805190602001909291905050505050565b600660009054906101000a900473ffffffffffffffffffffffffffffffffffffffff1681565b600960009054906101000a900460ff1681565b600660009054906101000a900473ffffffffffffffffffffffffffffffffffffffff1673ffffffffffffffffffffffffffffffffffffffff163373ffffffffffffffffffffffffffffffffffffffff161415156119ce576040517f08c379a00000000000000000000000000000000000000000000000000000000081526004018080602001828103825260128152602001807f73656e6465722773206e6f74206f776e6572000000000000000000000000000081525060200191505060405180910390fd5b60008173ffffffffffffffffffffffffffffffffffffffff1614151515611a5d576040517f08c379a000000000000000000000000000000000000000000000000000000000815260040180806020018281038252600f8152602001807f496e76616c69642041646472657373000000000000000000000000000000000081525060200191505060405180910390fd5b6001600760008373ffffffffffffffffffffffffffffffffffffffff1673ffffffffffffffffffffffffffffffffffffffff16815260200190815260200160002060006101000a81548160ff02191690831515021790555050565b60008060085460055410159050611acd612291565b80611ad55750805b91505090565b600660009054906101000a900473ffffffffffffffffffffffffffffffffffffffff1673ffffffffffffffffffffffffffffffffffffffff163373ffffffffffffffffffffffffffffffffffffffff16141515611ba0576040517f08c379a00000000000000000000000000000000000000000000000000000000081526004018080602001828103825260128152602001807f73656e6465722773206e6f74206f776e6572000000000000000000000000000081525060200191505060405180910390fd5b600660149054906101000a900460ff161515611c24576040517f08c379a00000000000000000000000000000000000000000000000000000000081526004018080602001828103825260118152602001807f737461746520697320756e70617573656400000000000000000000000000000081525060200191505060405180910390fd5b60006002811115611c3157fe5b600960009054906101000a900460ff166002811115611c4c57fe5b141515611c5857600080fd5b6001600960006101000a81548160ff02191690836002811115611c7757fe5b02179055507f4722e6c4579996b373f4de030a1847ddba1df215e3fc5388223a9873d563e7ef60405160405180910390a1565b600660009054906101000a900473ffffffffffffffffffffffffffffffffffffffff1673ffffffffffffffffffffffffffffffffffffffff163373ffffffffffffffffffffffffffffffffffffffff16141515611d6f576040517f08c379a00000000000000000000000000000000000000000000000000000000081526004018080602001828103825260128152602001807f73656e6465722773206e6f74206f776e6572000000000000000000000000000081525060200191505060405180910390fd5b600073ffffffffffffffffffffffffffffffffffffffff168173ffffffffffffffffffffffffffffffffffffffff16141515611de75780600660006101000a81548173ffffffffffffffffffffffffffffffffffffffff021916908373ffffffffffffffffffffffffffffffffffffffff1602179055505b50565b6000809054906101000a900473ffffffffffffffffffffffffffffffffffffffff1681565b6000600660009054906101000a900473ffffffffffffffffffffffffffffffffffffffff1673ffffffffffffffffffffffffffffffffffffffff163373ffffffffffffffffffffffffffffffffffffffff16141515611ed6576040517f08c379a00000000000000000000000000000000000000000000000000000000081526004018080602001828103825260128152602001807f73656e6465722773206e6f74206f776e6572000000000000000000000000000081525060200191505060405180910390fd5b60008473ffffffffffffffffffffffffffffffffffffffff1614151515611f65576040517f08c379a000000000000000000000000000000000000000000000000000000000815260040180806020018281038252600f8152602001807f496e76616c69642061646472657373000000000000000000000000000000000081525060200191505060405180910390fd5b600083111515611fdd576040517f08c379a00000000000000000000000000000000000000000000000000000000081526004018080602001828103825260148152602001807f496e76616c696420746f6b656e20616d6f756e7400000000000000000000000081525060200191505060405180910390fd5b611ff0828461225690919063ffffffff16565b9050600a54811115151561200357600080fd5b61201881600a546121cd90919063ffffffff16565b600a819055506000809054906101000a900473ffffffffffffffffffffffffffffffffffffffff1673ffffffffffffffffffffffffffffffffffffffff166340c10f1985670de0b6b3a764000086026040518363ffffffff167c0100000000000000000000000000000000000000000000000000000000028152600401808373ffffffffffffffffffffffffffffffffffffffff1673ffffffffffffffffffffffffffffffffffffffff16815260200182815260200192505050602060405180830381600087803b1580156120ec57600080fd5b505af1158015612100573d6000803e3d6000fd5b505050506040513d602081101561211657600080fd5b8101908080519060200190929190505050508373ffffffffffffffffffffffffffffffffffffffff167fa4171309aa20c94f7b0e295310f4f071d84286aa482020e09431d46f46ce89d9826040518082815260200191505060405180910390a250505050565b600080600854612197346005546121cd90919063ffffffff16565b111590506121a361229d565b80156121ac5750805b91505090565b60008082848115156121c057fe5b0490508091505092915050565b60008082840190508381101515156121e157fe5b8091505092915050565b600360009054906101000a900473ffffffffffffffffffffffffffffffffffffffff1673ffffffffffffffffffffffffffffffffffffffff166108fc349081150290604051600060405180830381858888f19350505050158015612253573d6000803e3d6000fd5b50565b600080600084141561226b576000915061228a565b828402905082848281151561227c57fe5b0414151561228657fe5b8091505b5092915050565b60006002544311905090565b6000806122a8611ab8565b1580156122ba57506122b933610ca0565b5b90506122c46122d2565b806122cc5750805b91505090565b60008060008043925060015483101580156122ef57506002548311155b9150600034141590508180156123025750805b9350505050905600a165627a7a723058201ef29a4c6e3ed3688a70a5a10c274621fb5ca728ad340033183e4bbe14159bcb002960806040526000600560006101000a81548160ff0219169083151502179055506000600560016101000a81548160ff02191690831515021790555033600360006101000a81548173ffffffffffffffffffffffffffffffffffffffff021916908373ffffffffffffffffffffffffffffffffffffffff160217905550611e398061008a6000396000f300608060405260043610610112576000357c0100000000000000000000000000000000000000000000000000000000900463ffffffff16806305d2035b1461011757806306fdde0314610146578063095ea7b3146101d657806318160ddd1461023b57806323b872dd14610266578063313ce567146102eb5780633f4ba83a1461031c57806340c10f191461034b57806342966c68146103b057806345c8b1a6146103dd5780635c975abb1461042057806370a082311461044f5780637d64bcb4146104a65780638456cb59146104d55780638d1fdf2f146105045780638da5cb5b1461054757806395d89b411461059e578063a9059cbb1461062e578063dd62ed3e14610693578063f2fde38b1461070a575b600080fd5b34801561012357600080fd5b5061012c61074d565b604051808215151515815260200191505060405180910390f35b34801561015257600080fd5b5061015b610760565b6040518080602001828103825283818151815260200191508051906020019080838360005b8381101561019b578082015181840152602081019050610180565b50505050905090810190601f1680156101c85780820380516001836020036101000a031916815260200191505b509250505060405180910390f35b3480156101e257600080fd5b50610221600480360381019080803573ffffffffffffffffffffffffffffffffffffffff16906020019092919080359060200190929190505050610799565b604051808215151515815260200191505060405180910390f35b34801561024757600080fd5b50610250610920565b6040518082815260200191505060405180910390f35b34801561027257600080fd5b506102d1600480360381019080803573ffffffffffffffffffffffffffffffffffffffff169060200190929190803573ffffffffffffffffffffffffffffffffffffffff16906020019092919080359060200190929190505050610926565b604051808215151515815260200191505060405180910390f35b3480156102f757600080fd5b506103006109c1565b604051808260ff1660ff16815260200191505060405180910390f35b34801561032857600080fd5b506103316109c6565b604051808215151515815260200191505060405180910390f35b34801561035757600080fd5b50610396600480360381019080803573ffffffffffffffffffffffffffffffffffffffff16906020019092919080359060200190929190505050610b5f565b604051808215151515815260200191505060405180910390f35b3480156103bc57600080fd5b506103db60048036038101908080359060200190929190505050610d4a565b005b3480156103e957600080fd5b5061041e600480360381019080803573ffffffffffffffffffffffffffffffffffffffff169060200190929190505050610e5f565b005b34801561042c57600080fd5b50610435611110565b604051808215151515815260200191505060405180910390f35b34801561045b57600080fd5b50610490600480360381019080803573ffffffffffffffffffffffffffffffffffffffff169060200190929190505050611123565b6040518082815260200191505060405180910390f35b3480156104b257600080fd5b506104bb61116c565b604051808215151515815260200191505060405180910390f35b3480156104e157600080fd5b506104ea611281565b604051808215151515815260200191505060405180910390f35b34801561051057600080fd5b50610545600480360381019080803573ffffffffffffffffffffffffffffffffffffffff16906020019092919050505061141b565b005b34801561055357600080fd5b5061055c6116cc565b604051808273ffffffffffffffffffffffffffffffffffffffff1673ffffffffffffffffffffffffffffffffffffffff16815260200191505060405180910390f35b3480156105aa57600080fd5b506105b36116f2565b6040518080602001828103825283818151815260200191508051906020019080838360005b838110156105f35780820151818401526020810190506105d8565b50505050905090810190601f1680156106205780820380516001836020036101000a031916815260200191505b509250505060405180910390f35b34801561063a57600080fd5b50610679600480360381019080803573ffffffffffffffffffffffffffffffffffffffff1690602001909291908035906020019092919050505061172b565b604051808215151515815260200191505060405180910390f35b34801561069f57600080fd5b506106f4600480360381019080803573ffffffffffffffffffffffffffffffffffffffff169060200190929190803573ffffffffffffffffffffffffffffffffffffffff1690602001909291905050506117c4565b6040518082815260200191505060405180910390f35b34801561071657600080fd5b5061074b600480360381019080803573ffffffffffffffffffffffffffffffffffffffff16906020019092919050505061184b565b005b600560019054906101000a900460ff1681565b6040805190810160405280600d81526020017f4b61707974616c20546f6b656e0000000000000000000000000000000000000081525081565b60008082148061082557506000600260003373ffffffffffffffffffffffffffffffffffffffff1673ffffffffffffffffffffffffffffffffffffffff16815260200190815260200160002060008573ffffffffffffffffffffffffffffffffffffffff1673ffffffffffffffffffffffffffffffffffffffff16815260200190815260200160002054145b151561083057600080fd5b81600260003373ffffffffffffffffffffffffffffffffffffffff1673ffffffffffffffffffffffffffffffffffffffff16815260200190815260200160002060008573ffffffffffffffffffffffffffffffffffffffff1673ffffffffffffffffffffffffffffffffffffffff168152602001908152602001600020819055508273ffffffffffffffffffffffffffffffffffffffff163373ffffffffffffffffffffffffffffffffffffffff167f8c5be1e5ebec7d5bd14f71427d1e84f3dd0314c0f7b2291e5b200ac8c7c3b925846040518082815260200191505060405180910390a36001905092915050565b60005481565b6000600560009054906101000a900460ff161515156109ad576040517f08c379a000000000000000000000000000000000000000000000000000000000815260040180806020018281038252600f8152602001807f737461746520697320706175736564000000000000000000000000000000000081525060200191505060405180910390fd5b6109b884848461198b565b90509392505050565b601281565b6000600360009054906101000a900473ffffffffffffffffffffffffffffffffffffffff1673ffffffffffffffffffffffffffffffffffffffff163373ffffffffffffffffffffffffffffffffffffffff16141515610a8d576040517f08c379a00000000000000000000000000000000000000000000000000000000081526004018080602001828103825260128152602001807f73656e6465722773206e6f74206f776e6572000000000000000000000000000081525060200191505060405180910390fd5b600560009054906101000a900460ff161515610b11576040517f08c379a00000000000000000000000000000000000000000000000000000000081526004018080602001828103825260118152602001807f737461746520697320756e70617573656400000000000000000000000000000081525060200191505060405180910390fd5b6000600560006101000a81548160ff0219169083151502179055507f7805862f689e2f13df9f062ff482ad3ad112aca9e0847911ed832e158c525b3360405160405180910390a16001905090565b6000600360009054906101000a900473ffffffffffffffffffffffffffffffffffffffff1673ffffffffffffffffffffffffffffffffffffffff163373ffffffffffffffffffffffffffffffffffffffff16141515610c26576040517f08c379a00000000000000000000000000000000000000000000000000000000081526004018080602001828103825260128152602001807f73656e6465722773206e6f74206f776e6572000000000000000000000000000081525060200191505060405180910390fd5b600560019054906101000a900460ff16151515610c4257600080fd5b610c5782600054611c3b90919063ffffffff16565b600081905550610caf82600160008673ffffffffffffffffffffffffffffffffffffffff1673ffffffffffffffffffffffffffffffffffffffff16815260200190815260200160002054611c3b90919063ffffffff16565b600160008573ffffffffffffffffffffffffffffffffffffffff1673ffffffffffffffffffffffffffffffffffffffff168152602001908152602001600020819055508273ffffffffffffffffffffffffffffffffffffffff167f0f6798a560793a54c3bcfe86a93cde1e73087d944c0ea20544137d4121396885836040518082815260200191505060405180910390a26001905092915050565b60008082111515610d5a57600080fd5b339050610daf82600160008473ffffffffffffffffffffffffffffffffffffffff1673ffffffffffffffffffffffffffffffffffffffff16815260200190815260200160002054611c5990919063ffffffff16565b600160008373ffffffffffffffffffffffffffffffffffffffff1673ffffffffffffffffffffffffffffffffffffffff16815260200190815260200160002081905550610e0782600054611c5990919063ffffffff16565b6000819055508073ffffffffffffffffffffffffffffffffffffffff167fcc16f5dbb4873280815c1ee09dbd06736cffcc184412cf7a71a0fdb75d397ca5836040518082815260200191505060405180910390a25050565b600360009054906101000a900473ffffffffffffffffffffffffffffffffffffffff1673ffffffffffffffffffffffffffffffffffffffff163373ffffffffffffffffffffffffffffffffffffffff16141515610f24576040517f08c379a00000000000000000000000000000000000000000000000000000000081526004018080602001828103825260128152602001807f73656e6465722773206e6f74206f776e6572000000000000000000000000000081525060200191505060405180910390fd5b60008173ffffffffffffffffffffffffffffffffffffffff1614151515610fb3576040517f08c379a000000000000000000000000000000000000000000000000000000000815260040180806020018281038252600f8152602001807f496e76616c69642061646472657373000000000000000000000000000000000081525060200191505060405180910390fd5b6000600460008373ffffffffffffffffffffffffffffffffffffffff1673ffffffffffffffffffffffffffffffffffffffff168152602001908152602001600020541415151561100257600080fd5b600460008273ffffffffffffffffffffffffffffffffffffffff1673ffffffffffffffffffffffffffffffffffffffff16815260200190815260200160002054600160008373ffffffffffffffffffffffffffffffffffffffff1673ffffffffffffffffffffffffffffffffffffffff168152602001908152602001600020819055506000600460008373ffffffffffffffffffffffffffffffffffffffff1673ffffffffffffffffffffffffffffffffffffffff168152602001908152602001600020819055508073ffffffffffffffffffffffffffffffffffffffff167f495000bab77c122cd7e46bf45a154d1d3a41d7b10838e41bba384a6096403c9460405160405180910390a250565b600560009054906101000a900460ff1681565b6000600160008373ffffffffffffffffffffffffffffffffffffffff1673ffffffffffffffffffffffffffffffffffffffff168152602001908152602001600020549050919050565b6000600360009054906101000a900473ffffffffffffffffffffffffffffffffffffffff1673ffffffffffffffffffffffffffffffffffffffff163373ffffffffffffffffffffffffffffffffffffffff16141515611233576040517f08c379a00000000000000000000000000000000000000000000000000000000081526004018080602001828103825260128152602001807f73656e6465722773206e6f74206f776e6572000000000000000000000000000081525060200191505060405180910390fd5b6001600560016101000a81548160ff0219169083151502179055507fae5184fba832cb2b1f702aca6117b8d265eaf03ad33eb133f19dde0f5920fa0860405160405180910390a16001905090565b6000600360009054906101000a900473ffffffffffffffffffffffffffffffffffffffff1673ffffffffffffffffffffffffffffffffffffffff163373ffffffffffffffffffffffffffffffffffffffff16141515611348576040517f08c379a00000000000000000000000000000000000000000000000000000000081526004018080602001828103825260128152602001807f73656e6465722773206e6f74206f776e6572000000000000000000000000000081525060200191505060405180910390fd5b600560009054906101000a900460ff161515156113cd576040517f08c379a000000000000000000000000000000000000000000000000000000000815260040180806020018281038252600f8152602001807f737461746520697320706175736564000000000000000000000000000000000081525060200191505060405180910390fd5b6001600560006101000a81548160ff0219169083151502179055507f6985a02210a168e66602d3235cb6db0e70f92b3ba4d376a33c0f3d9434bff62560405160405180910390a16001905090565b600360009054906101000a900473ffffffffffffffffffffffffffffffffffffffff1673ffffffffffffffffffffffffffffffffffffffff163373ffffffffffffffffffffffffffffffffffffffff161415156114e0576040517f08c379a00000000000000000000000000000000000000000000000000000000081526004018080602001828103825260128152602001807f73656e6465722773206e6f74206f776e6572000000000000000000000000000081525060200191505060405180910390fd5b60008173ffffffffffffffffffffffffffffffffffffffff161415151561156f576040517f08c379a000000000000000000000000000000000000000000000000000000000815260040180806020018281038252600f8152602001807f496e76616c69642061646472657373000000000000000000000000000000000081525060200191505060405180910390fd5b6000600160008373ffffffffffffffffffffffffffffffffffffffff1673ffffffffffffffffffffffffffffffffffffffff16815260200190815260200160002054141515156115be57600080fd5b600160008273ffffffffffffffffffffffffffffffffffffffff1673ffffffffffffffffffffffffffffffffffffffff16815260200190815260200160002054600460008373ffffffffffffffffffffffffffffffffffffffff1673ffffffffffffffffffffffffffffffffffffffff168152602001908152602001600020819055506000600160008373ffffffffffffffffffffffffffffffffffffffff1673ffffffffffffffffffffffffffffffffffffffff168152602001908152602001600020819055508073ffffffffffffffffffffffffffffffffffffffff167f4ae80cf10a460786338dbb9f2b9779a92c9f9fb4d3edf09d61f14ed928c2d57a60405160405180910390a250565b600360009054906101000a900473ffffffffffffffffffffffffffffffffffffffff1681565b6040805190810160405280600381526020017f4b594c000000000000000000000000000000000000000000000000000000000081525081565b6000600560009054906101000a900460ff161515156117b2576040517f08c379a000000000000000000000000000000000000000000000000000000000815260040180806020018281038252600f8152602001807f737461746520697320706175736564000000000000000000000000000000000081525060200191505060405180910390fd5b6117bc8383611c72565b905092915050565b6000600260008473ffffffffffffffffffffffffffffffffffffffff1673ffffffffffffffffffffffffffffffffffffffff16815260200190815260200160002060008373ffffffffffffffffffffffffffffffffffffffff1673ffffffffffffffffffffffffffffffffffffffff16815260200190815260200160002054905092915050565b600360009054906101000a900473ffffffffffffffffffffffffffffffffffffffff1673ffffffffffffffffffffffffffffffffffffffff163373ffffffffffffffffffffffffffffffffffffffff16141515611910576040517f08c379a00000000000000000000000000000000000000000000000000000000081526004018080602001828103825260128152602001807f73656e6465722773206e6f74206f776e6572000000000000000000000000000081525060200191505060405180910390fd5b600073ffffffffffffffffffffffffffffffffffffffff168173ffffffffffffffffffffffffffffffffffffffff161415156119885780600360006101000a81548173ffffffffffffffffffffffffffffffffffffffff021916908373ffffffffffffffffffffffffffffffffffffffff1602179055505b50565b600080600260008673ffffffffffffffffffffffffffffffffffffffff1673ffffffffffffffffffffffffffffffffffffffff16815260200190815260200160002060003373ffffffffffffffffffffffffffffffffffffffff1673ffffffffffffffffffffffffffffffffffffffff168152602001908152602001600020549050611a5f83600160008773ffffffffffffffffffffffffffffffffffffffff1673ffffffffffffffffffffffffffffffffffffffff16815260200190815260200160002054611c3b90919063ffffffff16565b600160008673ffffffffffffffffffffffffffffffffffffffff1673ffffffffffffffffffffffffffffffffffffffff16815260200190815260200160002081905550611af483600160008873ffffffffffffffffffffffffffffffffffffffff1673ffffffffffffffffffffffffffffffffffffffff16815260200190815260200160002054611c5990919063ffffffff16565b600160008773ffffffffffffffffffffffffffffffffffffffff1673ffffffffffffffffffffffffffffffffffffffff16815260200190815260200160002081905550611b4a8382611c5990919063ffffffff16565b600260008773ffffffffffffffffffffffffffffffffffffffff1673ffffffffffffffffffffffffffffffffffffffff16815260200190815260200160002060003373ffffffffffffffffffffffffffffffffffffffff1673ffffffffffffffffffffffffffffffffffffffff168152602001908152602001600020819055508373ffffffffffffffffffffffffffffffffffffffff168573ffffffffffffffffffffffffffffffffffffffff167fddf252ad1be2c89b69c2b068fc378daa952ba7f163c4a11628f55a4df523b3ef856040518082815260200191505060405180910390a360019150509392505050565b6000808284019050838110151515611c4f57fe5b8091505092915050565b6000828211151515611c6757fe5b818303905092915050565b6000611cc682600160003373ffffffffffffffffffffffffffffffffffffffff1673ffffffffffffffffffffffffffffffffffffffff16815260200190815260200160002054611c5990919063ffffffff16565b600160003373ffffffffffffffffffffffffffffffffffffffff1673ffffffffffffffffffffffffffffffffffffffff16815260200190815260200160002081905550611d5b82600160008673ffffffffffffffffffffffffffffffffffffffff1673ffffffffffffffffffffffffffffffffffffffff16815260200190815260200160002054611c3b90919063ffffffff16565b600160008573ffffffffffffffffffffffffffffffffffffffff1673ffffffffffffffffffffffffffffffffffffffff168152602001908152602001600020819055508273ffffffffffffffffffffffffffffffffffffffff163373ffffffffffffffffffffffffffffffffffffffff167fddf252ad1be2c89b69c2b068fc378daa952ba7f163c4a11628f55a4df523b3ef846040518082815260200191505060405180910390a360019050929150505600a165627a7a7230582008892e0e21b23f039eab835af67e081dc915544ffb25a5cc78078841f79fa5a10029",
  "source": "pragma solidity ^0.4.22;\r\n\r\nimport \"./Crowdsale.sol\";\r\n\r\ncontract KYLCrowdsale is Pausable, WhitelistedCrowdsale, CappedCrowdsale{\r\n    enum stages {pICO, ICO, end}\r\n\r\n    event PreCrowdsaleStarted();\r\n    event CrowdsaleStarted();\r\n    event RateChanged(uint256 rate);\r\n\r\n    event ExternalPurchase(address indexed who, uint256 tokens);\r\n    event AirDroppedTokens(address indexed who, uint256 tokens);\r\n\r\n    stages public stage;\r\n\r\n    uint256 airdropCap;\r\n\r\n    constructor(\r\n        uint256 _startBlock,\r\n        uint256 _endBlock,\r\n        uint256 _fixRate,\r\n        uint256 _airdropCap,\r\n        address wallet\r\n    )\r\n        public \r\n        Crowdsale(_startBlock, _endBlock, _fixRate, wallet)\r\n        WhitelistedCrowdsale()\r\n        CappedCrowdsale(8850 ether) \r\n        /**\r\n         * RATE FOR 0.25 USD = 590 * 10**12 Wei\r\n         * 590 szabo = 0.25 usd @ 420 usd = 1 ether\r\n         * 590 szabo * 15M KYL = 8850 ether\r\n         */\r\n    {\r\n        stage = stages.pICO;\r\n        airdropCap = _airdropCap * (1 ether);\r\n        KYLToken(token).pause();\r\n\r\n        emit PreCrowdsaleStarted();\r\n    }\r\n\r\n    /** function override */\r\n    function createTokenContract() internal returns (MintableToken) {\r\n        return new KYLToken();\r\n    }\r\n\r\n    function setRate(uint256 _rate) public whenPaused onlyOwner{\r\n        require(_rate > 0, \"Rate is zero\");\r\n        rate = _rate * (1 ether);\r\n        emit RateChanged(rate);\r\n    }\r\n\r\n    function getRate() public view returns(uint256){\r\n        return rate;\r\n    }\r\n\r\n    /**function override */\r\n    function buyTokens(address who) public whenNotPaused payable{\r\n        require(who != 0x0, \"Invalid address\");\r\n        require(super.validPurchase(), \"Invalid purchase\");\r\n\r\n        if(stage == stages.pICO){\r\n            require(super.isWhitelisted(who), \"Address not whitelisted\");\r\n        }\r\n        \r\n        uint256 value = msg.value;\r\n        uint256 tokens = value.div(rate) * 1 ether;\r\n        weiRaised = weiRaised.add(value);\r\n\r\n        token.mint(who, tokens);\r\n        emit TokenPurchase(msg.sender, who, value, tokens);\r\n        \r\n        super.forwardFunds();\r\n    }\r\n\r\n    /* handle external buyers */\r\n    function mintTo(address who, uint256 tokens) public onlyOwner{\r\n        require(who != 0x0, \"Invalid address\");\r\n\r\n        if(stage == stages.pICO){\r\n            require(super.isWhitelisted(who), \"Address not whitelisted\");\r\n        }\r\n\r\n        uint256 value = tokens.mul(rate);\r\n        require(value <= cap, \"Tokens value exceeds cap\");\r\n        weiRaised = weiRaised.add(value);\r\n        \r\n        token.mint(who, tokens * (1 ether));\r\n        emit ExternalPurchase(who, tokens);\r\n    }\r\n\r\n    /* airdrop tokens */\r\n    function airDrop(address who, uint256 tokens, uint256 _rate) public onlyOwner{\r\n        require(who != 0x0, \"Invalid address\");\r\n        require(tokens > 0, \"Invalid token amount\");\r\n        uint256 value = tokens.mul(_rate);\r\n        require(value <= airdropCap);\r\n\r\n        airdropCap = airdropCap.add(value);\r\n        //should be in KYL?\r\n        token.mint(who, tokens * (1 ether));\r\n        emit AirDroppedTokens(who, value);\r\n    }\r\n\r\n    // finalize pICO, goto next stage\r\n    function nextStage() public onlyOwner whenPaused{\r\n        require(stage == stages.pICO);\r\n        stage = stages.ICO;\r\n\r\n        emit CrowdsaleStarted();\r\n    }\r\n\r\n    //finalize public crowdsale\r\n    function finalize() public onlyOwner whenPaused{\r\n        stage = stages.end;\r\n        KYLToken(token).unpause();\r\n    }\r\n\r\n    /* liberate foundation tokens */\r\n    function liberate(uint256 tokens) public onlyOwner{\r\n        require(stage == stages.end);\r\n        token.mint(wallet, tokens);\r\n    }\r\n  \r\n    /**fallback function override */\r\n    function () public payable {\r\n        buyTokens(msg.sender);\r\n    }\r\n\r\n}",
  "sourcePath": "C:\\Users\\Alex\\Desktop\\KAPYTAL\\KYL Test\\contracts\\KYLCrowdsale.sol",
  "compiler": {
    "name": "solc",
    "version": "0.4.24+commit.e67f0147.Emscripten.clang"
  },
  "schemaVersion": "2.0.1",
  "updatedAt": "2018-07-19T21:06:28.848Z"
}