{
  "contractName": "KYLPreCrowdsale",
  "abi": [
    {
      "constant": true,
      "inputs": [],
      "name": "endBlock",
      "outputs": [
        {
          "name": "",
          "type": "uint256"
        }
      ],
      "payable": false,
      "stateMutability": "view",
      "type": "function"
    },
    {
      "constant": true,
      "inputs": [],
      "name": "rate",
      "outputs": [
        {
          "name": "",
          "type": "uint256"
        }
      ],
      "payable": false,
      "stateMutability": "view",
      "type": "function"
    },
    {
      "constant": true,
      "inputs": [],
      "name": "cap",
      "outputs": [
        {
          "name": "",
          "type": "uint256"
        }
      ],
      "payable": false,
      "stateMutability": "view",
      "type": "function"
    },
    {
      "constant": true,
      "inputs": [
        {
          "name": "buyer",
          "type": "address"
        }
      ],
      "name": "isWhitelisted",
      "outputs": [
        {
          "name": "",
          "type": "bool"
        }
      ],
      "payable": false,
      "stateMutability": "view",
      "type": "function"
    },
    {
      "constant": true,
      "inputs": [],
      "name": "weiRaised",
      "outputs": [
        {
          "name": "",
          "type": "uint256"
        }
      ],
      "payable": false,
      "stateMutability": "view",
      "type": "function"
    },
    {
      "constant": true,
      "inputs": [],
      "name": "startBlock",
      "outputs": [
        {
          "name": "",
          "type": "uint256"
        }
      ],
      "payable": false,
      "stateMutability": "view",
      "type": "function"
    },
    {
      "constant": true,
      "inputs": [],
      "name": "wallet",
      "outputs": [
        {
          "name": "",
          "type": "address"
        }
      ],
      "payable": false,
      "stateMutability": "view",
      "type": "function"
    },
    {
      "constant": true,
      "inputs": [],
      "name": "owner",
      "outputs": [
        {
          "name": "",
          "type": "address"
        }
      ],
      "payable": false,
      "stateMutability": "view",
      "type": "function"
    },
    {
      "constant": false,
      "inputs": [
        {
          "name": "buyer",
          "type": "address"
        }
      ],
      "name": "addToWhitelist",
      "outputs": [],
      "payable": false,
      "stateMutability": "nonpayable",
      "type": "function"
    },
    {
      "constant": true,
      "inputs": [],
      "name": "hasEnded",
      "outputs": [
        {
          "name": "",
          "type": "bool"
        }
      ],
      "payable": false,
      "stateMutability": "view",
      "type": "function"
    },
    {
      "constant": false,
      "inputs": [
        {
          "name": "newOwner",
          "type": "address"
        }
      ],
      "name": "transferOwnership",
      "outputs": [],
      "payable": false,
      "stateMutability": "nonpayable",
      "type": "function"
    },
    {
      "constant": true,
      "inputs": [],
      "name": "token",
      "outputs": [
        {
          "name": "",
          "type": "address"
        }
      ],
      "payable": false,
      "stateMutability": "view",
      "type": "function"
    },
    {
      "inputs": [
        {
          "name": "_startBlock",
          "type": "uint256"
        },
        {
          "name": "_endBlock",
          "type": "uint256"
        },
        {
          "name": "_preRate",
          "type": "uint256"
        },
        {
          "name": "_fixRate",
          "type": "uint256"
        },
        {
          "name": "wallet",
          "type": "address"
        }
      ],
      "payable": false,
      "stateMutability": "nonpayable",
      "type": "constructor"
    },
    {
      "payable": true,
      "stateMutability": "payable",
      "type": "fallback"
    },
    {
      "anonymous": false,
      "inputs": [
        {
          "indexed": false,
          "name": "rate",
          "type": "uint256"
        }
      ],
      "name": "FixedRateChanged",
      "type": "event"
    },
    {
      "anonymous": false,
      "inputs": [
        {
          "indexed": true,
          "name": "buyer",
          "type": "address"
        },
        {
          "indexed": false,
          "name": "rate",
          "type": "uint256"
        }
      ],
      "name": "PreferentialRateChange",
      "type": "event"
    },
    {
      "anonymous": false,
      "inputs": [
        {
          "indexed": true,
          "name": "who",
          "type": "address"
        },
        {
          "indexed": false,
          "name": "tokens",
          "type": "uint256"
        }
      ],
      "name": "BonusMintedTokens",
      "type": "event"
    },
    {
      "anonymous": false,
      "inputs": [
        {
          "indexed": true,
          "name": "purchaser",
          "type": "address"
        },
        {
          "indexed": true,
          "name": "beneficiary",
          "type": "address"
        },
        {
          "indexed": false,
          "name": "value",
          "type": "uint256"
        },
        {
          "indexed": false,
          "name": "amount",
          "type": "uint256"
        }
      ],
      "name": "TokenPurchase",
      "type": "event"
    },
    {
      "constant": true,
      "inputs": [],
      "name": "getRate",
      "outputs": [
        {
          "name": "",
          "type": "uint256"
        }
      ],
      "payable": false,
      "stateMutability": "view",
      "type": "function"
    },
    {
      "constant": false,
      "inputs": [
        {
          "name": "buyer",
          "type": "address"
        },
        {
          "name": "rate",
          "type": "uint256"
        }
      ],
      "name": "setPreferentialRate",
      "outputs": [],
      "payable": false,
      "stateMutability": "nonpayable",
      "type": "function"
    },
    {
      "constant": false,
      "inputs": [
        {
          "name": "who",
          "type": "address"
        },
        {
          "name": "tokens",
          "type": "uint256"
        }
      ],
      "name": "mintBonus",
      "outputs": [],
      "payable": false,
      "stateMutability": "nonpayable",
      "type": "function"
    },
    {
      "constant": false,
      "inputs": [
        {
          "name": "who",
          "type": "address"
        }
      ],
      "name": "buyTokens",
      "outputs": [],
      "payable": true,
      "stateMutability": "payable",
      "type": "function"
    }
  ],
  "bytecode": "0x60806040523480156200001157600080fd5b5060405160a0806200375183398101806040528101908080519060200190929190805190602001909291908051906020019092919080519060200190929190805190602001909291905050506901dfc26c0eb0bf08000085858484838310151515620000e5576040517f08c379a00000000000000000000000000000000000000000000000000000000081526004018080602001828103825260188152602001807f4542206973206e6f7420686967686572207468616e205342000000000000000081525060200191505060405180910390fd5b6000821115156200015e576040517f08c379a00000000000000000000000000000000000000000000000000000000081526004018080602001828103825260158152602001807f52617465206d75737420626520706f736974697665000000000000000000000081525060200191505060405180910390fd5b60008173ffffffffffffffffffffffffffffffffffffffff1614151515620001ee576040517f08c379a000000000000000000000000000000000000000000000000000000000815260040180806020018281038252601a8152602001807f46756e64732077616c6c65742063616e6e6f742062652030783000000000000081525060200191505060405180910390fd5b620002076200045c640100000000026401000000009004565b6000806101000a81548173ffffffffffffffffffffffffffffffffffffffff021916908373ffffffffffffffffffffffffffffffffffffffff16021790555083600181905550826002819055508160048190555080600360006101000a81548173ffffffffffffffffffffffffffffffffffffffff021916908373ffffffffffffffffffffffffffffffffffffffff1602179055505050505033600660006101000a81548173ffffffffffffffffffffffffffffffffffffffff021916908373ffffffffffffffffffffffffffffffffffffffff160217905550600081111515620002f157600080fd5b80600881905550506000831180156200030a5750600082115b15156200037f576040517f08c379a000000000000000000000000000000000000000000000000000000000815260040180806020018281038252600c8152602001807f52617465206973207a65726f000000000000000000000000000000000000000081525060200191505060405180910390fd5b82600a8190555081600b819055506000809054906101000a900473ffffffffffffffffffffffffffffffffffffffff1673ffffffffffffffffffffffffffffffffffffffff16638456cb596040518163ffffffff167c0100000000000000000000000000000000000000000000000000000000028152600401602060405180830381600087803b1580156200041357600080fd5b505af115801562000428573d6000803e3d6000fd5b505050506040513d60208110156200043f57600080fd5b81019080805190602001909291905050505050505050506200049c565b6000620004686200048b565b604051809103906000f08015801562000485573d6000803e3d6000fd5b50905090565b604051611ec3806200188e83390190565b6113e280620004ac6000396000f3006080604052600436106100e6576000357c0100000000000000000000000000000000000000000000000000000000900463ffffffff168063083c6323146100f15780632c4e722e1461011c578063355274ea146101475780633af32abf146101725780634042b66f146101cd57806348cd4cb1146101f8578063521eb27314610223578063679aefce1461027a5780638da5cb5b146102a5578063a5180454146102fc578063d9a7c61d14610349578063e43252d714610396578063ec8ac4d8146103d9578063ecb70fb71461040f578063f2fde38b1461043e578063fc0c546a14610481575b6100ef336104d8565b005b3480156100fd57600080fd5b506101066107a4565b6040518082815260200191505060405180910390f35b34801561012857600080fd5b506101316107aa565b6040518082815260200191505060405180910390f35b34801561015357600080fd5b5061015c6107b0565b6040518082815260200191505060405180910390f35b34801561017e57600080fd5b506101b3600480360381019080803573ffffffffffffffffffffffffffffffffffffffff1690602001909291905050506107b6565b604051808215151515815260200191505060405180910390f35b3480156101d957600080fd5b506101e261080c565b6040518082815260200191505060405180910390f35b34801561020457600080fd5b5061020d610812565b6040518082815260200191505060405180910390f35b34801561022f57600080fd5b50610238610818565b604051808273ffffffffffffffffffffffffffffffffffffffff1673ffffffffffffffffffffffffffffffffffffffff16815260200191505060405180910390f35b34801561028657600080fd5b5061028f61083e565b6040518082815260200191505060405180910390f35b3480156102b157600080fd5b506102ba6108f0565b604051808273ffffffffffffffffffffffffffffffffffffffff1673ffffffffffffffffffffffffffffffffffffffff16815260200191505060405180910390f35b34801561030857600080fd5b50610347600480360381019080803573ffffffffffffffffffffffffffffffffffffffff16906020019092919080359060200190929190505050610916565b005b34801561035557600080fd5b50610394600480360381019080803573ffffffffffffffffffffffffffffffffffffffff16906020019092919080359060200190929190505050610b67565b005b3480156103a257600080fd5b506103d7600480360381019080803573ffffffffffffffffffffffffffffffffffffffff169060200190929190505050610ef1565b005b61040d600480360381019080803573ffffffffffffffffffffffffffffffffffffffff1690602001909291905050506104d8565b005b34801561041b57600080fd5b506104246110a0565b604051808215151515815260200191505060405180910390f35b34801561044a57600080fd5b5061047f600480360381019080803573ffffffffffffffffffffffffffffffffffffffff1690602001909291905050506110c3565b005b34801561048d57600080fd5b50610496611203565b604051808273ffffffffffffffffffffffffffffffffffffffff1673ffffffffffffffffffffffffffffffffffffffff16815260200191505060405180910390f35b60008060008373ffffffffffffffffffffffffffffffffffffffff161415151561056a576040517f08c379a000000000000000000000000000000000000000000000000000000000815260040180806020018281038252600f8152602001807f496e76616c69642061646472657373000000000000000000000000000000000081525060200191505060405180910390fd5b610572611228565b15156105e6576040517f08c379a00000000000000000000000000000000000000000000000000000000081526004018080602001828103825260108152602001807f496e76616c69642070757263686173650000000000000000000000000000000081525060200191505060405180910390fd5b349150670de0b6b3a764000061060c6105fd61083e565b8461125e90919063ffffffff16565b0290506106248260055461127990919063ffffffff16565b6005819055506000809054906101000a900473ffffffffffffffffffffffffffffffffffffffff1673ffffffffffffffffffffffffffffffffffffffff166340c10f1984836040518363ffffffff167c0100000000000000000000000000000000000000000000000000000000028152600401808373ffffffffffffffffffffffffffffffffffffffff1673ffffffffffffffffffffffffffffffffffffffff16815260200182815260200192505050602060405180830381600087803b1580156106ee57600080fd5b505af1158015610702573d6000803e3d6000fd5b505050506040513d602081101561071857600080fd5b8101908080519060200190929190505050508273ffffffffffffffffffffffffffffffffffffffff163373ffffffffffffffffffffffffffffffffffffffff167f623b3804fa71d67900d064613da8f94b9617215ee90799290593e1745087ad188484604051808381526020018281526020019250505060405180910390a361079f611297565b505050565b60025481565b60045481565b60085481565b6000600760008373ffffffffffffffffffffffffffffffffffffffff1673ffffffffffffffffffffffffffffffffffffffff16815260200190815260200160002060009054906101000a900460ff169050919050565b60055481565b60015481565b600360009054906101000a900473ffffffffffffffffffffffffffffffffffffffff1681565b6000610849336107b6565b156108e7576000600960003373ffffffffffffffffffffffffffffffffffffffff1673ffffffffffffffffffffffffffffffffffffffff1681526020019081526020016000205414156108a057600a5490506108ed565b600960003373ffffffffffffffffffffffffffffffffffffffff1673ffffffffffffffffffffffffffffffffffffffff1681526020019081526020016000205490506108ed565b600b5490505b90565b600660009054906101000a900473ffffffffffffffffffffffffffffffffffffffff1681565b600660009054906101000a900473ffffffffffffffffffffffffffffffffffffffff1673ffffffffffffffffffffffffffffffffffffffff163373ffffffffffffffffffffffffffffffffffffffff161415156109db576040517f08c379a00000000000000000000000000000000000000000000000000000000081526004018080602001828103825260128152602001807f73656e6465722773206e6f74206f776e6572000000000000000000000000000081525060200191505060405180910390fd5b6109e4826107b6565b1515610a58576040517f08c379a00000000000000000000000000000000000000000000000000000000081526004018080602001828103825260178152602001807f41646472657373206e6f742077686974656c697374656400000000000000000081525060200191505060405180910390fd5b60008114151515610ad1576040517f08c379a00000000000000000000000000000000000000000000000000000000081526004018080602001828103825260138152602001807f526174652063616e6e6f74206265207a65726f0000000000000000000000000081525060200191505060405180910390fd5b80600960008473ffffffffffffffffffffffffffffffffffffffff1673ffffffffffffffffffffffffffffffffffffffff168152602001908152602001600020819055508173ffffffffffffffffffffffffffffffffffffffff167f0f3ae419c756d7584b97a00ed889018a8f499d13dcdac1c7b3a95c7ca1f37f66826040518082815260200191505060405180910390a25050565b6000600660009054906101000a900473ffffffffffffffffffffffffffffffffffffffff1673ffffffffffffffffffffffffffffffffffffffff163373ffffffffffffffffffffffffffffffffffffffff16141515610c2e576040517f08c379a00000000000000000000000000000000000000000000000000000000081526004018080602001828103825260128152602001807f73656e6465722773206e6f74206f776e6572000000000000000000000000000081525060200191505060405180910390fd5b610c37836107b6565b1515610cab576040517f08c379a00000000000000000000000000000000000000000000000000000000081526004018080602001828103825260178152602001807f41646472657373206e6f742077686974656c697374656400000000000000000081525060200191505060405180910390fd5b610cfd600960008573ffffffffffffffffffffffffffffffffffffffff1673ffffffffffffffffffffffffffffffffffffffff168152602001908152602001600020548361130290919063ffffffff16565b90506008548111151515610d79576040517f08c379a00000000000000000000000000000000000000000000000000000000081526004018080602001828103825260188152602001807f546f6b656e732076616c7565206578636565647320636170000000000000000081525060200191505060405180910390fd5b610d8e8160055461127990919063ffffffff16565b6005819055506000809054906101000a900473ffffffffffffffffffffffffffffffffffffffff1673ffffffffffffffffffffffffffffffffffffffff166340c10f1984670de0b6b3a764000085026040518363ffffffff167c0100000000000000000000000000000000000000000000000000000000028152600401808373ffffffffffffffffffffffffffffffffffffffff1673ffffffffffffffffffffffffffffffffffffffff16815260200182815260200192505050602060405180830381600087803b158015610e6257600080fd5b505af1158015610e76573d6000803e3d6000fd5b505050506040513d6020811015610e8c57600080fd5b8101908080519060200190929190505050508273ffffffffffffffffffffffffffffffffffffffff167f266bae908d1c55ff42ffa56cfba6787d398d86d6ee7b41e02f0fc9508808bc39836040518082815260200191505060405180910390a2505050565b600660009054906101000a900473ffffffffffffffffffffffffffffffffffffffff1673ffffffffffffffffffffffffffffffffffffffff163373ffffffffffffffffffffffffffffffffffffffff16141515610fb6576040517f08c379a00000000000000000000000000000000000000000000000000000000081526004018080602001828103825260128152602001807f73656e6465722773206e6f74206f776e6572000000000000000000000000000081525060200191505060405180910390fd5b60008173ffffffffffffffffffffffffffffffffffffffff1614151515611045576040517f08c379a000000000000000000000000000000000000000000000000000000000815260040180806020018281038252600f8152602001807f496e76616c69642041646472657373000000000000000000000000000000000081525060200191505060405180910390fd5b6001600760008373ffffffffffffffffffffffffffffffffffffffff1673ffffffffffffffffffffffffffffffffffffffff16815260200190815260200160002060006101000a81548160ff02191690831515021790555050565b600080600854600554101590506110b561133d565b806110bd5750805b91505090565b600660009054906101000a900473ffffffffffffffffffffffffffffffffffffffff1673ffffffffffffffffffffffffffffffffffffffff163373ffffffffffffffffffffffffffffffffffffffff16141515611188576040517f08c379a00000000000000000000000000000000000000000000000000000000081526004018080602001828103825260128152602001807f73656e6465722773206e6f74206f776e6572000000000000000000000000000081525060200191505060405180910390fd5b600073ffffffffffffffffffffffffffffffffffffffff168173ffffffffffffffffffffffffffffffffffffffff161415156112005780600660006101000a81548173ffffffffffffffffffffffffffffffffffffffff021916908373ffffffffffffffffffffffffffffffffffffffff1602179055505b50565b6000809054906101000a900473ffffffffffffffffffffffffffffffffffffffff1681565b6000806008546112433460055461127990919063ffffffff16565b1115905061124f611349565b80156112585750805b91505090565b600080828481151561126c57fe5b0490508091505092915050565b600080828401905083811015151561128d57fe5b8091505092915050565b600360009054906101000a900473ffffffffffffffffffffffffffffffffffffffff1673ffffffffffffffffffffffffffffffffffffffff166108fc349081150290604051600060405180830381858888f193505050501580156112ff573d6000803e3d6000fd5b50565b60008060008414156113175760009150611336565b828402905082848281151561132857fe5b0414151561133257fe5b8091505b5092915050565b60006002544311905090565b6000806113546110a0565b1580156113665750611365336107b6565b5b905061137061137e565b806113785750805b91505090565b600080600080439250600154831015801561139b57506002548311155b9150600034141590508180156113ae5750805b9350505050905600a165627a7a7230582054a87b8b0e11798f72e693dd45cfb47056fdbf93c9ac0e58999e0921ab0c2b79002960806040526000600560006101000a81548160ff0219169083151502179055506000600560016101000a81548160ff02191690831515021790555033600360006101000a81548173ffffffffffffffffffffffffffffffffffffffff021916908373ffffffffffffffffffffffffffffffffffffffff160217905550611e398061008a6000396000f300608060405260043610610112576000357c0100000000000000000000000000000000000000000000000000000000900463ffffffff16806305d2035b1461011757806306fdde0314610146578063095ea7b3146101d657806318160ddd1461023b57806323b872dd14610266578063313ce567146102eb5780633f4ba83a1461031c57806340c10f191461034b57806342966c68146103b057806345c8b1a6146103dd5780635c975abb1461042057806370a082311461044f5780637d64bcb4146104a65780638456cb59146104d55780638d1fdf2f146105045780638da5cb5b1461054757806395d89b411461059e578063a9059cbb1461062e578063dd62ed3e14610693578063f2fde38b1461070a575b600080fd5b34801561012357600080fd5b5061012c61074d565b604051808215151515815260200191505060405180910390f35b34801561015257600080fd5b5061015b610760565b6040518080602001828103825283818151815260200191508051906020019080838360005b8381101561019b578082015181840152602081019050610180565b50505050905090810190601f1680156101c85780820380516001836020036101000a031916815260200191505b509250505060405180910390f35b3480156101e257600080fd5b50610221600480360381019080803573ffffffffffffffffffffffffffffffffffffffff16906020019092919080359060200190929190505050610799565b604051808215151515815260200191505060405180910390f35b34801561024757600080fd5b50610250610920565b6040518082815260200191505060405180910390f35b34801561027257600080fd5b506102d1600480360381019080803573ffffffffffffffffffffffffffffffffffffffff169060200190929190803573ffffffffffffffffffffffffffffffffffffffff16906020019092919080359060200190929190505050610926565b604051808215151515815260200191505060405180910390f35b3480156102f757600080fd5b506103006109c1565b604051808260ff1660ff16815260200191505060405180910390f35b34801561032857600080fd5b506103316109c6565b604051808215151515815260200191505060405180910390f35b34801561035757600080fd5b50610396600480360381019080803573ffffffffffffffffffffffffffffffffffffffff16906020019092919080359060200190929190505050610b5f565b604051808215151515815260200191505060405180910390f35b3480156103bc57600080fd5b506103db60048036038101908080359060200190929190505050610d4a565b005b3480156103e957600080fd5b5061041e600480360381019080803573ffffffffffffffffffffffffffffffffffffffff169060200190929190505050610e5f565b005b34801561042c57600080fd5b50610435611110565b604051808215151515815260200191505060405180910390f35b34801561045b57600080fd5b50610490600480360381019080803573ffffffffffffffffffffffffffffffffffffffff169060200190929190505050611123565b6040518082815260200191505060405180910390f35b3480156104b257600080fd5b506104bb61116c565b604051808215151515815260200191505060405180910390f35b3480156104e157600080fd5b506104ea611281565b604051808215151515815260200191505060405180910390f35b34801561051057600080fd5b50610545600480360381019080803573ffffffffffffffffffffffffffffffffffffffff16906020019092919050505061141b565b005b34801561055357600080fd5b5061055c6116cc565b604051808273ffffffffffffffffffffffffffffffffffffffff1673ffffffffffffffffffffffffffffffffffffffff16815260200191505060405180910390f35b3480156105aa57600080fd5b506105b36116f2565b6040518080602001828103825283818151815260200191508051906020019080838360005b838110156105f35780820151818401526020810190506105d8565b50505050905090810190601f1680156106205780820380516001836020036101000a031916815260200191505b509250505060405180910390f35b34801561063a57600080fd5b50610679600480360381019080803573ffffffffffffffffffffffffffffffffffffffff1690602001909291908035906020019092919050505061172b565b604051808215151515815260200191505060405180910390f35b34801561069f57600080fd5b506106f4600480360381019080803573ffffffffffffffffffffffffffffffffffffffff169060200190929190803573ffffffffffffffffffffffffffffffffffffffff1690602001909291905050506117c4565b6040518082815260200191505060405180910390f35b34801561071657600080fd5b5061074b600480360381019080803573ffffffffffffffffffffffffffffffffffffffff16906020019092919050505061184b565b005b600560019054906101000a900460ff1681565b6040805190810160405280600d81526020017f4b61707974616c20546f6b656e0000000000000000000000000000000000000081525081565b60008082148061082557506000600260003373ffffffffffffffffffffffffffffffffffffffff1673ffffffffffffffffffffffffffffffffffffffff16815260200190815260200160002060008573ffffffffffffffffffffffffffffffffffffffff1673ffffffffffffffffffffffffffffffffffffffff16815260200190815260200160002054145b151561083057600080fd5b81600260003373ffffffffffffffffffffffffffffffffffffffff1673ffffffffffffffffffffffffffffffffffffffff16815260200190815260200160002060008573ffffffffffffffffffffffffffffffffffffffff1673ffffffffffffffffffffffffffffffffffffffff168152602001908152602001600020819055508273ffffffffffffffffffffffffffffffffffffffff163373ffffffffffffffffffffffffffffffffffffffff167f8c5be1e5ebec7d5bd14f71427d1e84f3dd0314c0f7b2291e5b200ac8c7c3b925846040518082815260200191505060405180910390a36001905092915050565b60005481565b6000600560009054906101000a900460ff161515156109ad576040517f08c379a000000000000000000000000000000000000000000000000000000000815260040180806020018281038252600f8152602001807f737461746520697320706175736564000000000000000000000000000000000081525060200191505060405180910390fd5b6109b884848461198b565b90509392505050565b601281565b6000600360009054906101000a900473ffffffffffffffffffffffffffffffffffffffff1673ffffffffffffffffffffffffffffffffffffffff163373ffffffffffffffffffffffffffffffffffffffff16141515610a8d576040517f08c379a00000000000000000000000000000000000000000000000000000000081526004018080602001828103825260128152602001807f73656e6465722773206e6f74206f776e6572000000000000000000000000000081525060200191505060405180910390fd5b600560009054906101000a900460ff161515610b11576040517f08c379a00000000000000000000000000000000000000000000000000000000081526004018080602001828103825260118152602001807f737461746520697320756e70617573656400000000000000000000000000000081525060200191505060405180910390fd5b6000600560006101000a81548160ff0219169083151502179055507f7805862f689e2f13df9f062ff482ad3ad112aca9e0847911ed832e158c525b3360405160405180910390a16001905090565b6000600360009054906101000a900473ffffffffffffffffffffffffffffffffffffffff1673ffffffffffffffffffffffffffffffffffffffff163373ffffffffffffffffffffffffffffffffffffffff16141515610c26576040517f08c379a00000000000000000000000000000000000000000000000000000000081526004018080602001828103825260128152602001807f73656e6465722773206e6f74206f776e6572000000000000000000000000000081525060200191505060405180910390fd5b600560019054906101000a900460ff16151515610c4257600080fd5b610c5782600054611c3b90919063ffffffff16565b600081905550610caf82600160008673ffffffffffffffffffffffffffffffffffffffff1673ffffffffffffffffffffffffffffffffffffffff16815260200190815260200160002054611c3b90919063ffffffff16565b600160008573ffffffffffffffffffffffffffffffffffffffff1673ffffffffffffffffffffffffffffffffffffffff168152602001908152602001600020819055508273ffffffffffffffffffffffffffffffffffffffff167f0f6798a560793a54c3bcfe86a93cde1e73087d944c0ea20544137d4121396885836040518082815260200191505060405180910390a26001905092915050565b60008082111515610d5a57600080fd5b339050610daf82600160008473ffffffffffffffffffffffffffffffffffffffff1673ffffffffffffffffffffffffffffffffffffffff16815260200190815260200160002054611c5990919063ffffffff16565b600160008373ffffffffffffffffffffffffffffffffffffffff1673ffffffffffffffffffffffffffffffffffffffff16815260200190815260200160002081905550610e0782600054611c5990919063ffffffff16565b6000819055508073ffffffffffffffffffffffffffffffffffffffff167fcc16f5dbb4873280815c1ee09dbd06736cffcc184412cf7a71a0fdb75d397ca5836040518082815260200191505060405180910390a25050565b600360009054906101000a900473ffffffffffffffffffffffffffffffffffffffff1673ffffffffffffffffffffffffffffffffffffffff163373ffffffffffffffffffffffffffffffffffffffff16141515610f24576040517f08c379a00000000000000000000000000000000000000000000000000000000081526004018080602001828103825260128152602001807f73656e6465722773206e6f74206f776e6572000000000000000000000000000081525060200191505060405180910390fd5b60008173ffffffffffffffffffffffffffffffffffffffff1614151515610fb3576040517f08c379a000000000000000000000000000000000000000000000000000000000815260040180806020018281038252600f8152602001807f496e76616c69642061646472657373000000000000000000000000000000000081525060200191505060405180910390fd5b6000600460008373ffffffffffffffffffffffffffffffffffffffff1673ffffffffffffffffffffffffffffffffffffffff168152602001908152602001600020541415151561100257600080fd5b600460008273ffffffffffffffffffffffffffffffffffffffff1673ffffffffffffffffffffffffffffffffffffffff16815260200190815260200160002054600160008373ffffffffffffffffffffffffffffffffffffffff1673ffffffffffffffffffffffffffffffffffffffff168152602001908152602001600020819055506000600460008373ffffffffffffffffffffffffffffffffffffffff1673ffffffffffffffffffffffffffffffffffffffff168152602001908152602001600020819055508073ffffffffffffffffffffffffffffffffffffffff167f495000bab77c122cd7e46bf45a154d1d3a41d7b10838e41bba384a6096403c9460405160405180910390a250565b600560009054906101000a900460ff1681565b6000600160008373ffffffffffffffffffffffffffffffffffffffff1673ffffffffffffffffffffffffffffffffffffffff168152602001908152602001600020549050919050565b6000600360009054906101000a900473ffffffffffffffffffffffffffffffffffffffff1673ffffffffffffffffffffffffffffffffffffffff163373ffffffffffffffffffffffffffffffffffffffff16141515611233576040517f08c379a00000000000000000000000000000000000000000000000000000000081526004018080602001828103825260128152602001807f73656e6465722773206e6f74206f776e6572000000000000000000000000000081525060200191505060405180910390fd5b6001600560016101000a81548160ff0219169083151502179055507fae5184fba832cb2b1f702aca6117b8d265eaf03ad33eb133f19dde0f5920fa0860405160405180910390a16001905090565b6000600360009054906101000a900473ffffffffffffffffffffffffffffffffffffffff1673ffffffffffffffffffffffffffffffffffffffff163373ffffffffffffffffffffffffffffffffffffffff16141515611348576040517f08c379a00000000000000000000000000000000000000000000000000000000081526004018080602001828103825260128152602001807f73656e6465722773206e6f74206f776e6572000000000000000000000000000081525060200191505060405180910390fd5b600560009054906101000a900460ff161515156113cd576040517f08c379a000000000000000000000000000000000000000000000000000000000815260040180806020018281038252600f8152602001807f737461746520697320706175736564000000000000000000000000000000000081525060200191505060405180910390fd5b6001600560006101000a81548160ff0219169083151502179055507f6985a02210a168e66602d3235cb6db0e70f92b3ba4d376a33c0f3d9434bff62560405160405180910390a16001905090565b600360009054906101000a900473ffffffffffffffffffffffffffffffffffffffff1673ffffffffffffffffffffffffffffffffffffffff163373ffffffffffffffffffffffffffffffffffffffff161415156114e0576040517f08c379a00000000000000000000000000000000000000000000000000000000081526004018080602001828103825260128152602001807f73656e6465722773206e6f74206f776e6572000000000000000000000000000081525060200191505060405180910390fd5b60008173ffffffffffffffffffffffffffffffffffffffff161415151561156f576040517f08c379a000000000000000000000000000000000000000000000000000000000815260040180806020018281038252600f8152602001807f496e76616c69642061646472657373000000000000000000000000000000000081525060200191505060405180910390fd5b6000600160008373ffffffffffffffffffffffffffffffffffffffff1673ffffffffffffffffffffffffffffffffffffffff16815260200190815260200160002054141515156115be57600080fd5b600160008273ffffffffffffffffffffffffffffffffffffffff1673ffffffffffffffffffffffffffffffffffffffff16815260200190815260200160002054600460008373ffffffffffffffffffffffffffffffffffffffff1673ffffffffffffffffffffffffffffffffffffffff168152602001908152602001600020819055506000600160008373ffffffffffffffffffffffffffffffffffffffff1673ffffffffffffffffffffffffffffffffffffffff168152602001908152602001600020819055508073ffffffffffffffffffffffffffffffffffffffff167f4ae80cf10a460786338dbb9f2b9779a92c9f9fb4d3edf09d61f14ed928c2d57a60405160405180910390a250565b600360009054906101000a900473ffffffffffffffffffffffffffffffffffffffff1681565b6040805190810160405280600381526020017f4b594c000000000000000000000000000000000000000000000000000000000081525081565b6000600560009054906101000a900460ff161515156117b2576040517f08c379a000000000000000000000000000000000000000000000000000000000815260040180806020018281038252600f8152602001807f737461746520697320706175736564000000000000000000000000000000000081525060200191505060405180910390fd5b6117bc8383611c72565b905092915050565b6000600260008473ffffffffffffffffffffffffffffffffffffffff1673ffffffffffffffffffffffffffffffffffffffff16815260200190815260200160002060008373ffffffffffffffffffffffffffffffffffffffff1673ffffffffffffffffffffffffffffffffffffffff16815260200190815260200160002054905092915050565b600360009054906101000a900473ffffffffffffffffffffffffffffffffffffffff1673ffffffffffffffffffffffffffffffffffffffff163373ffffffffffffffffffffffffffffffffffffffff16141515611910576040517f08c379a00000000000000000000000000000000000000000000000000000000081526004018080602001828103825260128152602001807f73656e6465722773206e6f74206f776e6572000000000000000000000000000081525060200191505060405180910390fd5b600073ffffffffffffffffffffffffffffffffffffffff168173ffffffffffffffffffffffffffffffffffffffff161415156119885780600360006101000a81548173ffffffffffffffffffffffffffffffffffffffff021916908373ffffffffffffffffffffffffffffffffffffffff1602179055505b50565b600080600260008673ffffffffffffffffffffffffffffffffffffffff1673ffffffffffffffffffffffffffffffffffffffff16815260200190815260200160002060003373ffffffffffffffffffffffffffffffffffffffff1673ffffffffffffffffffffffffffffffffffffffff168152602001908152602001600020549050611a5f83600160008773ffffffffffffffffffffffffffffffffffffffff1673ffffffffffffffffffffffffffffffffffffffff16815260200190815260200160002054611c3b90919063ffffffff16565b600160008673ffffffffffffffffffffffffffffffffffffffff1673ffffffffffffffffffffffffffffffffffffffff16815260200190815260200160002081905550611af483600160008873ffffffffffffffffffffffffffffffffffffffff1673ffffffffffffffffffffffffffffffffffffffff16815260200190815260200160002054611c5990919063ffffffff16565b600160008773ffffffffffffffffffffffffffffffffffffffff1673ffffffffffffffffffffffffffffffffffffffff16815260200190815260200160002081905550611b4a8382611c5990919063ffffffff16565b600260008773ffffffffffffffffffffffffffffffffffffffff1673ffffffffffffffffffffffffffffffffffffffff16815260200190815260200160002060003373ffffffffffffffffffffffffffffffffffffffff1673ffffffffffffffffffffffffffffffffffffffff168152602001908152602001600020819055508373ffffffffffffffffffffffffffffffffffffffff168573ffffffffffffffffffffffffffffffffffffffff167fddf252ad1be2c89b69c2b068fc378daa952ba7f163c4a11628f55a4df523b3ef856040518082815260200191505060405180910390a360019150509392505050565b6000808284019050838110151515611c4f57fe5b8091505092915050565b6000828211151515611c6757fe5b818303905092915050565b6000611cc682600160003373ffffffffffffffffffffffffffffffffffffffff1673ffffffffffffffffffffffffffffffffffffffff16815260200190815260200160002054611c5990919063ffffffff16565b600160003373ffffffffffffffffffffffffffffffffffffffff1673ffffffffffffffffffffffffffffffffffffffff16815260200190815260200160002081905550611d5b82600160008673ffffffffffffffffffffffffffffffffffffffff1673ffffffffffffffffffffffffffffffffffffffff16815260200190815260200160002054611c3b90919063ffffffff16565b600160008573ffffffffffffffffffffffffffffffffffffffff1673ffffffffffffffffffffffffffffffffffffffff168152602001908152602001600020819055508273ffffffffffffffffffffffffffffffffffffffff163373ffffffffffffffffffffffffffffffffffffffff167fddf252ad1be2c89b69c2b068fc378daa952ba7f163c4a11628f55a4df523b3ef846040518082815260200191505060405180910390a360019050929150505600a165627a7a7230582008892e0e21b23f039eab835af67e081dc915544ffb25a5cc78078841f79fa5a10029",
  "source": "pragma solidity ^0.4.22;\r\n\r\nimport \"./Crowdsale.sol\";\r\n\r\ncontract KYLPreCrowdsale is WhitelistedCrowdsale, CappedCrowdsale{\r\n    //custom rate for each whitelisted buyer\r\n    mapping(address => uint256) buyerRate;\r\n\r\n    event FixedRateChanged(uint256 rate);\r\n    event PreferentialRateChange(address indexed buyer, uint256 rate);\r\n    event BonusMintedTokens(address indexed who, uint256 tokens);\r\n\r\n    uint256 preRate;\r\n    uint256 fixRate;\r\n\r\n    constructor(\r\n        uint256 _startBlock,\r\n        uint256 _endBlock,\r\n        uint256 _preRate,\r\n        uint256 _fixRate,\r\n        address wallet\r\n    )\r\n        public \r\n        Crowdsale(_startBlock, _endBlock, _fixRate, wallet)\r\n        WhitelistedCrowdsale()\r\n        CappedCrowdsale(8850 ether) \r\n        /**\r\n         * RATE FOR 0.25 USD = 590 * 10**12 Wei\r\n         * 590 szabo = 0.25 usd @ 420 usd = 1 ether\r\n         * 590 szabo * 15M KYL = 8850 ether\r\n         */\r\n    {\r\n        require(_preRate > 0 && _fixRate > 0, \"Rate is zero\");\r\n        preRate = _preRate;\r\n        fixRate = _fixRate;\r\n        \r\n        KYLToken(token).pause();\r\n    }\r\n\r\n    /** function override */\r\n    function createTokenContract() internal returns (MintableToken) {\r\n        return new KYLToken();\r\n    }\r\n\r\n    function getRate() public view returns(uint256){\r\n        if (super.isWhitelisted(msg.sender)) {\r\n            if (buyerRate[msg.sender] == 0){\r\n                return preRate;\r\n            }else{\r\n                return buyerRate[msg.sender];\r\n            }\r\n        }\r\n\r\n        return fixRate;\r\n    }\r\n\r\n    function setPreferentialRate(address buyer, uint256 rate) public onlyOwner{\r\n        require(super.isWhitelisted(buyer), \"Address not whitelisted\");\r\n        require(rate != 0, \"Rate cannot be zero\");\r\n\r\n        buyerRate[buyer] = rate;\r\n        emit PreferentialRateChange(buyer, rate);\r\n    }\r\n\r\n    function mintBonus(address who, uint256 tokens) public onlyOwner{\r\n        require(super.isWhitelisted(who), \"Address not whitelisted\");\r\n        uint256 value = tokens.mul(buyerRate[who]);\r\n        require(value <= cap, \"Tokens value exceeds cap\");\r\n\r\n        weiRaised = weiRaised.add(value);\r\n        \r\n        token.mint(who, tokens * (1 ether));\r\n        emit BonusMintedTokens(who, tokens);\r\n    }\r\n\r\n    /**function override */\r\n    function buyTokens(address who) public payable{\r\n        require(who != 0x0, \"Invalid address\");\r\n        require(super.validPurchase(), \"Invalid purchase\");\r\n\r\n        uint256 value = msg.value;\r\n        //uint256 rate = getRate();\r\n        uint256 tokens = value.div(getRate()) * 1 ether;\r\n\r\n        weiRaised = weiRaised.add(value);\r\n\r\n        token.mint(who, tokens);\r\n        emit TokenPurchase(msg.sender, who, value, tokens);\r\n        \r\n        super.forwardFunds();\r\n    }\r\n    \r\n    /**function override */\r\n    function () public payable {\r\n        buyTokens(msg.sender);\r\n    }\r\n}",
  "sourcePath": "C:\\Users\\Alex\\Desktop\\KAPYTAL\\KYL Test\\contracts\\KYLPreCrowdsale.sol",
  "compiler": {
    "name": "solc",
    "version": "0.4.24+commit.e67f0147.Emscripten.clang"
  },
  "schemaVersion": "2.0.1",
  "updatedAt": "2018-07-19T21:06:28.048Z"
}