{
  "contractName": "KYLPreCrowdsale",
  "abi": [
    {
      "constant": true,
      "inputs": [],
      "name": "endBlock",
      "outputs": [
        {
          "name": "",
          "type": "uint256"
        }
      ],
      "payable": false,
      "stateMutability": "view",
      "type": "function"
    },
    {
      "constant": true,
      "inputs": [],
      "name": "rate",
      "outputs": [
        {
          "name": "",
          "type": "uint256"
        }
      ],
      "payable": false,
      "stateMutability": "view",
      "type": "function"
    },
    {
      "constant": true,
      "inputs": [],
      "name": "cap",
      "outputs": [
        {
          "name": "",
          "type": "uint256"
        }
      ],
      "payable": false,
      "stateMutability": "view",
      "type": "function"
    },
    {
      "constant": true,
      "inputs": [
        {
          "name": "buyer",
          "type": "address"
        }
      ],
      "name": "isWhitelisted",
      "outputs": [
        {
          "name": "",
          "type": "bool"
        }
      ],
      "payable": false,
      "stateMutability": "view",
      "type": "function"
    },
    {
      "constant": true,
      "inputs": [],
      "name": "weiRaised",
      "outputs": [
        {
          "name": "",
          "type": "uint256"
        }
      ],
      "payable": false,
      "stateMutability": "view",
      "type": "function"
    },
    {
      "constant": true,
      "inputs": [],
      "name": "startBlock",
      "outputs": [
        {
          "name": "",
          "type": "uint256"
        }
      ],
      "payable": false,
      "stateMutability": "view",
      "type": "function"
    },
    {
      "constant": true,
      "inputs": [],
      "name": "wallet",
      "outputs": [
        {
          "name": "",
          "type": "address"
        }
      ],
      "payable": false,
      "stateMutability": "view",
      "type": "function"
    },
    {
      "constant": true,
      "inputs": [],
      "name": "owner",
      "outputs": [
        {
          "name": "",
          "type": "address"
        }
      ],
      "payable": false,
      "stateMutability": "view",
      "type": "function"
    },
    {
      "constant": false,
      "inputs": [
        {
          "name": "buyer",
          "type": "address"
        }
      ],
      "name": "addToWhitelist",
      "outputs": [],
      "payable": false,
      "stateMutability": "nonpayable",
      "type": "function"
    },
    {
      "constant": true,
      "inputs": [],
      "name": "hasEnded",
      "outputs": [
        {
          "name": "",
          "type": "bool"
        }
      ],
      "payable": false,
      "stateMutability": "view",
      "type": "function"
    },
    {
      "constant": false,
      "inputs": [
        {
          "name": "newOwner",
          "type": "address"
        }
      ],
      "name": "transferOwnership",
      "outputs": [],
      "payable": false,
      "stateMutability": "nonpayable",
      "type": "function"
    },
    {
      "constant": true,
      "inputs": [],
      "name": "token",
      "outputs": [
        {
          "name": "",
          "type": "address"
        }
      ],
      "payable": false,
      "stateMutability": "view",
      "type": "function"
    },
    {
      "inputs": [
        {
          "name": "_startBlock",
          "type": "uint256"
        },
        {
          "name": "_endBlock",
          "type": "uint256"
        },
        {
          "name": "_preRate",
          "type": "uint256"
        },
        {
          "name": "_fixRate",
          "type": "uint256"
        },
        {
          "name": "wallet",
          "type": "address"
        }
      ],
      "payable": false,
      "stateMutability": "nonpayable",
      "type": "constructor"
    },
    {
      "payable": true,
      "stateMutability": "payable",
      "type": "fallback"
    },
    {
      "anonymous": false,
      "inputs": [
        {
          "indexed": false,
          "name": "rate",
          "type": "uint256"
        }
      ],
      "name": "FixedRateChanged",
      "type": "event"
    },
    {
      "anonymous": false,
      "inputs": [
        {
          "indexed": true,
          "name": "buyer",
          "type": "address"
        },
        {
          "indexed": false,
          "name": "rate",
          "type": "uint256"
        }
      ],
      "name": "PreferentialRateChange",
      "type": "event"
    },
    {
      "anonymous": false,
      "inputs": [
        {
          "indexed": true,
          "name": "who",
          "type": "address"
        },
        {
          "indexed": false,
          "name": "tokens",
          "type": "uint256"
        }
      ],
      "name": "BonusMintedTokens",
      "type": "event"
    },
    {
      "anonymous": false,
      "inputs": [
        {
          "indexed": true,
          "name": "purchaser",
          "type": "address"
        },
        {
          "indexed": true,
          "name": "beneficiary",
          "type": "address"
        },
        {
          "indexed": false,
          "name": "value",
          "type": "uint256"
        },
        {
          "indexed": false,
          "name": "amount",
          "type": "uint256"
        }
      ],
      "name": "TokenPurchase",
      "type": "event"
    },
    {
      "constant": true,
      "inputs": [],
      "name": "getRate",
      "outputs": [
        {
          "name": "",
          "type": "uint256"
        }
      ],
      "payable": false,
      "stateMutability": "view",
      "type": "function"
    },
    {
      "constant": false,
      "inputs": [
        {
          "name": "buyer",
          "type": "address"
        },
        {
          "name": "rate",
          "type": "uint256"
        }
      ],
      "name": "setPreferentialRate",
      "outputs": [],
      "payable": false,
      "stateMutability": "nonpayable",
      "type": "function"
    },
    {
      "constant": false,
      "inputs": [
        {
          "name": "who",
          "type": "address"
        },
        {
          "name": "tokens",
          "type": "uint256"
        }
      ],
      "name": "mintBonus",
      "outputs": [],
      "payable": false,
      "stateMutability": "nonpayable",
      "type": "function"
    },
    {
      "constant": true,
      "inputs": [],
      "name": "get",
      "outputs": [
        {
          "name": "",
          "type": "bool"
        }
      ],
      "payable": false,
      "stateMutability": "view",
      "type": "function"
    },
    {
      "constant": false,
      "inputs": [
        {
          "name": "who",
          "type": "address"
        }
      ],
      "name": "buyTokens",
      "outputs": [],
      "payable": true,
      "stateMutability": "payable",
      "type": "function"
    }
  ],
  "bytecode": "0x60806040523480156200001157600080fd5b5060405160a0806200304383398101806040528101908080519060200190929190805190602001909291908051906020019092919080519060200190929190805190602001909291905050506901dfc26c0eb0bf08000085858484838310151515620000e5576040517f08c379a00000000000000000000000000000000000000000000000000000000081526004018080602001828103825260188152602001807f4542206973206e6f7420686967686572207468616e205342000000000000000081525060200191505060405180910390fd5b6000821115156200015e576040517f08c379a00000000000000000000000000000000000000000000000000000000081526004018080602001828103825260158152602001807f52617465206d75737420626520706f736974697665000000000000000000000081525060200191505060405180910390fd5b60008173ffffffffffffffffffffffffffffffffffffffff1614151515620001ee576040517f08c379a000000000000000000000000000000000000000000000000000000000815260040180806020018281038252601a8152602001807f46756e64732077616c6c65742063616e6e6f742062652030783000000000000081525060200191505060405180910390fd5b620002076200045c640100000000026401000000009004565b6000806101000a81548173ffffffffffffffffffffffffffffffffffffffff021916908373ffffffffffffffffffffffffffffffffffffffff16021790555083600181905550826002819055508160048190555080600360006101000a81548173ffffffffffffffffffffffffffffffffffffffff021916908373ffffffffffffffffffffffffffffffffffffffff1602179055505050505033600660006101000a81548173ffffffffffffffffffffffffffffffffffffffff021916908373ffffffffffffffffffffffffffffffffffffffff160217905550600081111515620002f157600080fd5b80600881905550506000831180156200030a5750600082115b15156200037f576040517f08c379a000000000000000000000000000000000000000000000000000000000815260040180806020018281038252600c8152602001807f52617465206973207a65726f000000000000000000000000000000000000000081525060200191505060405180910390fd5b82600a8190555081600b819055506000809054906101000a900473ffffffffffffffffffffffffffffffffffffffff1673ffffffffffffffffffffffffffffffffffffffff16638456cb596040518163ffffffff167c0100000000000000000000000000000000000000000000000000000000028152600401602060405180830381600087803b1580156200041357600080fd5b505af115801562000428573d6000803e3d6000fd5b505050506040513d60208110156200043f57600080fd5b81019080805190602001909291905050505050505050506200049c565b6000620004686200048b565b604051809103906000f08015801562000485573d6000803e3d6000fd5b50905090565b60405161196a80620016d983390190565b61122d80620004ac6000396000f3006080604052600436106100f1576000357c0100000000000000000000000000000000000000000000000000000000900463ffffffff168063083c6323146100fc5780632c4e722e14610127578063355274ea146101525780633af32abf1461017d5780634042b66f146101d857806348cd4cb114610203578063521eb2731461022e578063679aefce146102855780636d4ce63c146102b05780638da5cb5b146102df578063a518045414610336578063d9a7c61d14610383578063e43252d7146103d0578063ec8ac4d814610413578063ecb70fb714610449578063f2fde38b14610478578063fc0c546a146104bb575b6100fa33610512565b005b34801561010857600080fd5b506101116107d9565b6040518082815260200191505060405180910390f35b34801561013357600080fd5b5061013c6107df565b6040518082815260200191505060405180910390f35b34801561015e57600080fd5b506101676107e5565b6040518082815260200191505060405180910390f35b34801561018957600080fd5b506101be600480360381019080803573ffffffffffffffffffffffffffffffffffffffff1690602001909291905050506107eb565b604051808215151515815260200191505060405180910390f35b3480156101e457600080fd5b506101ed610841565b6040518082815260200191505060405180910390f35b34801561020f57600080fd5b50610218610847565b6040518082815260200191505060405180910390f35b34801561023a57600080fd5b5061024361084d565b604051808273ffffffffffffffffffffffffffffffffffffffff1673ffffffffffffffffffffffffffffffffffffffff16815260200191505060405180910390f35b34801561029157600080fd5b5061029a610873565b6040518082815260200191505060405180910390f35b3480156102bc57600080fd5b506102c56108d3565b604051808215151515815260200191505060405180910390f35b3480156102eb57600080fd5b506102f461090f565b604051808273ffffffffffffffffffffffffffffffffffffffff1673ffffffffffffffffffffffffffffffffffffffff16815260200191505060405180910390f35b34801561034257600080fd5b50610381600480360381019080803573ffffffffffffffffffffffffffffffffffffffff16906020019092919080359060200190929190505050610935565b005b34801561038f57600080fd5b506103ce600480360381019080803573ffffffffffffffffffffffffffffffffffffffff16906020019092919080359060200190929190505050610b86565b005b3480156103dc57600080fd5b50610411600480360381019080803573ffffffffffffffffffffffffffffffffffffffff169060200190929190505050610d57565b005b610447600480360381019080803573ffffffffffffffffffffffffffffffffffffffff169060200190929190505050610512565b005b34801561045557600080fd5b5061045e610f06565b604051808215151515815260200191505060405180910390f35b34801561048457600080fd5b506104b9600480360381019080803573ffffffffffffffffffffffffffffffffffffffff169060200190929190505050610f29565b005b3480156104c757600080fd5b506104d0611069565b604051808273ffffffffffffffffffffffffffffffffffffffff1673ffffffffffffffffffffffffffffffffffffffff16815260200191505060405180910390f35b6000806000808473ffffffffffffffffffffffffffffffffffffffff16141515156105a5576040517f08c379a000000000000000000000000000000000000000000000000000000000815260040180806020018281038252600f8152602001807f496e76616c69642061646472657373000000000000000000000000000000000081525060200191505060405180910390fd5b6105ad61108e565b1515610621576040517f08c379a00000000000000000000000000000000000000000000000000000000081526004018080602001828103825260108152602001807f496e76616c69642070757263686173650000000000000000000000000000000081525060200191505060405180910390fd5b34925061062c610873565b915061064182846110c490919063ffffffff16565b9050610658836005546110ff90919063ffffffff16565b6005819055506000809054906101000a900473ffffffffffffffffffffffffffffffffffffffff1673ffffffffffffffffffffffffffffffffffffffff166340c10f1985836040518363ffffffff167c0100000000000000000000000000000000000000000000000000000000028152600401808373ffffffffffffffffffffffffffffffffffffffff1673ffffffffffffffffffffffffffffffffffffffff16815260200182815260200192505050602060405180830381600087803b15801561072257600080fd5b505af1158015610736573d6000803e3d6000fd5b505050506040513d602081101561074c57600080fd5b8101908080519060200190929190505050508373ffffffffffffffffffffffffffffffffffffffff163373ffffffffffffffffffffffffffffffffffffffff167f623b3804fa71d67900d064613da8f94b9617215ee90799290593e1745087ad188584604051808381526020018281526020019250505060405180910390a36107d361111d565b50505050565b60025481565b60045481565b60085481565b6000600760008373ffffffffffffffffffffffffffffffffffffffff1673ffffffffffffffffffffffffffffffffffffffff16815260200190815260200160002060009054906101000a900460ff169050919050565b60055481565b60015481565b600360009054906101000a900473ffffffffffffffffffffffffffffffffffffffff1681565b600061087e336107eb565b156108ca57600960003373ffffffffffffffffffffffffffffffffffffffff1673ffffffffffffffffffffffffffffffffffffffff1681526020019081526020016000205490506108d0565b600b5490505b90565b600080600062e4e1c091506108f86602189a146ae000836110c490919063ffffffff16565b90506901dfc26c0eb0bf0800008111159250505090565b600660009054906101000a900473ffffffffffffffffffffffffffffffffffffffff1681565b600660009054906101000a900473ffffffffffffffffffffffffffffffffffffffff1673ffffffffffffffffffffffffffffffffffffffff163373ffffffffffffffffffffffffffffffffffffffff161415156109fa576040517f08c379a00000000000000000000000000000000000000000000000000000000081526004018080602001828103825260128152602001807f73656e6465722773206e6f74206f776e6572000000000000000000000000000081525060200191505060405180910390fd5b610a03826107eb565b1515610a77576040517f08c379a00000000000000000000000000000000000000000000000000000000081526004018080602001828103825260178152602001807f41646472657373206e6f742077686974656c697374656400000000000000000081525060200191505060405180910390fd5b60008114151515610af0576040517f08c379a00000000000000000000000000000000000000000000000000000000081526004018080602001828103825260138152602001807f526174652063616e6e6f74206265207a65726f0000000000000000000000000081525060200191505060405180910390fd5b80600960008473ffffffffffffffffffffffffffffffffffffffff1673ffffffffffffffffffffffffffffffffffffffff168152602001908152602001600020819055508173ffffffffffffffffffffffffffffffffffffffff167f0f3ae419c756d7584b97a00ed889018a8f499d13dcdac1c7b3a95c7ca1f37f66826040518082815260200191505060405180910390a25050565b600660009054906101000a900473ffffffffffffffffffffffffffffffffffffffff1673ffffffffffffffffffffffffffffffffffffffff163373ffffffffffffffffffffffffffffffffffffffff16141515610c4b576040517f08c379a00000000000000000000000000000000000000000000000000000000081526004018080602001828103825260128152602001807f73656e6465722773206e6f74206f776e6572000000000000000000000000000081525060200191505060405180910390fd5b610c54826107eb565b1515610cc8576040517f08c379a00000000000000000000000000000000000000000000000000000000081526004018080602001828103825260178152602001807f41646472657373206e6f742077686974656c697374656400000000000000000081525060200191505060405180910390fd5b6901dfc26c0eb0bf0800006602189a146ae000820211151515610d53576040517f08c379a00000000000000000000000000000000000000000000000000000000081526004018080602001828103825260188152602001807f546f6b656e732076616c7565206578636565647320636170000000000000000081525060200191505060405180910390fd5b5050565b600660009054906101000a900473ffffffffffffffffffffffffffffffffffffffff1673ffffffffffffffffffffffffffffffffffffffff163373ffffffffffffffffffffffffffffffffffffffff16141515610e1c576040517f08c379a00000000000000000000000000000000000000000000000000000000081526004018080602001828103825260128152602001807f73656e6465722773206e6f74206f776e6572000000000000000000000000000081525060200191505060405180910390fd5b60008173ffffffffffffffffffffffffffffffffffffffff1614151515610eab576040517f08c379a000000000000000000000000000000000000000000000000000000000815260040180806020018281038252600f8152602001807f496e76616c69642041646472657373000000000000000000000000000000000081525060200191505060405180910390fd5b6001600760008373ffffffffffffffffffffffffffffffffffffffff1673ffffffffffffffffffffffffffffffffffffffff16815260200190815260200160002060006101000a81548160ff02191690831515021790555050565b60008060085460055410159050610f1b611188565b80610f235750805b91505090565b600660009054906101000a900473ffffffffffffffffffffffffffffffffffffffff1673ffffffffffffffffffffffffffffffffffffffff163373ffffffffffffffffffffffffffffffffffffffff16141515610fee576040517f08c379a00000000000000000000000000000000000000000000000000000000081526004018080602001828103825260128152602001807f73656e6465722773206e6f74206f776e6572000000000000000000000000000081525060200191505060405180910390fd5b600073ffffffffffffffffffffffffffffffffffffffff168173ffffffffffffffffffffffffffffffffffffffff161415156110665780600660006101000a81548173ffffffffffffffffffffffffffffffffffffffff021916908373ffffffffffffffffffffffffffffffffffffffff1602179055505b50565b6000809054906101000a900473ffffffffffffffffffffffffffffffffffffffff1681565b6000806008546110a9346005546110ff90919063ffffffff16565b111590506110b5611194565b80156110be5750805b91505090565b60008060008414156110d957600091506110f8565b82840290508284828115156110ea57fe5b041415156110f457fe5b8091505b5092915050565b600080828401905083811015151561111357fe5b8091505092915050565b600360009054906101000a900473ffffffffffffffffffffffffffffffffffffffff1673ffffffffffffffffffffffffffffffffffffffff166108fc349081150290604051600060405180830381858888f19350505050158015611185573d6000803e3d6000fd5b50565b60006002544311905090565b60008061119f610f06565b1580156111b157506111b0336107eb565b5b90506111bb6111c9565b806111c35750805b91505090565b60008060008043925060015483101580156111e657506002548311155b9150600034141590508180156111f95750805b9350505050905600a165627a7a723058207caa44dcdfcc928746802d45c5f6eb322f2675001f711f4a7043e4027a39bfb5002960806040526000600360146101000a81548160ff0219169083151502179055506000600360156101000a81548160ff02191690831515021790555033600360006101000a81548173ffffffffffffffffffffffffffffffffffffffff021916908373ffffffffffffffffffffffffffffffffffffffff1602179055506118e08061008a6000396000f3006080604052600436106100fc576000357c0100000000000000000000000000000000000000000000000000000000900463ffffffff16806305d2035b1461010157806306fdde0314610130578063095ea7b3146101c057806318160ddd1461022557806323b872dd14610250578063313ce567146102d55780633f4ba83a1461030657806340c10f191461033557806342966c681461039a5780635c975abb146103c757806370a08231146103f65780637d64bcb41461044d5780638456cb591461047c5780638da5cb5b146104ab57806395d89b4114610502578063a9059cbb14610592578063dd62ed3e146105f7578063f2fde38b1461066e575b600080fd5b34801561010d57600080fd5b506101166106b1565b604051808215151515815260200191505060405180910390f35b34801561013c57600080fd5b506101456106c4565b6040518080602001828103825283818151815260200191508051906020019080838360005b8381101561018557808201518184015260208101905061016a565b50505050905090810190601f1680156101b25780820380516001836020036101000a031916815260200191505b509250505060405180910390f35b3480156101cc57600080fd5b5061020b600480360381019080803573ffffffffffffffffffffffffffffffffffffffff169060200190929190803590602001909291905050506106fd565b604051808215151515815260200191505060405180910390f35b34801561023157600080fd5b5061023a610884565b6040518082815260200191505060405180910390f35b34801561025c57600080fd5b506102bb600480360381019080803573ffffffffffffffffffffffffffffffffffffffff169060200190929190803573ffffffffffffffffffffffffffffffffffffffff1690602001909291908035906020019092919050505061088a565b604051808215151515815260200191505060405180910390f35b3480156102e157600080fd5b506102ea610925565b604051808260ff1660ff16815260200191505060405180910390f35b34801561031257600080fd5b5061031b61092a565b604051808215151515815260200191505060405180910390f35b34801561034157600080fd5b50610380600480360381019080803573ffffffffffffffffffffffffffffffffffffffff16906020019092919080359060200190929190505050610ac3565b604051808215151515815260200191505060405180910390f35b3480156103a657600080fd5b506103c560048036038101908080359060200190929190505050610ad7565b005b3480156103d357600080fd5b506103dc610b68565b604051808215151515815260200191505060405180910390f35b34801561040257600080fd5b50610437600480360381019080803573ffffffffffffffffffffffffffffffffffffffff169060200190929190505050610b7b565b6040518082815260200191505060405180910390f35b34801561045957600080fd5b50610462610bc4565b604051808215151515815260200191505060405180910390f35b34801561048857600080fd5b50610491610cd9565b604051808215151515815260200191505060405180910390f35b3480156104b757600080fd5b506104c0610e73565b604051808273ffffffffffffffffffffffffffffffffffffffff1673ffffffffffffffffffffffffffffffffffffffff16815260200191505060405180910390f35b34801561050e57600080fd5b50610517610e99565b6040518080602001828103825283818151815260200191508051906020019080838360005b8381101561055757808201518184015260208101905061053c565b50505050905090810190601f1680156105845780820380516001836020036101000a031916815260200191505b509250505060405180910390f35b34801561059e57600080fd5b506105dd600480360381019080803573ffffffffffffffffffffffffffffffffffffffff16906020019092919080359060200190929190505050610ed2565b604051808215151515815260200191505060405180910390f35b34801561060357600080fd5b50610658600480360381019080803573ffffffffffffffffffffffffffffffffffffffff169060200190929190803573ffffffffffffffffffffffffffffffffffffffff169060200190929190505050610f6b565b6040518082815260200191505060405180910390f35b34801561067a57600080fd5b506106af600480360381019080803573ffffffffffffffffffffffffffffffffffffffff169060200190929190505050610ff2565b005b600360159054906101000a900460ff1681565b6040805190810160405280600d81526020017f4b61707974616c20546f6b656e0000000000000000000000000000000000000081525081565b60008082148061078957506000600260003373ffffffffffffffffffffffffffffffffffffffff1673ffffffffffffffffffffffffffffffffffffffff16815260200190815260200160002060008573ffffffffffffffffffffffffffffffffffffffff1673ffffffffffffffffffffffffffffffffffffffff16815260200190815260200160002054145b151561079457600080fd5b81600260003373ffffffffffffffffffffffffffffffffffffffff1673ffffffffffffffffffffffffffffffffffffffff16815260200190815260200160002060008573ffffffffffffffffffffffffffffffffffffffff1673ffffffffffffffffffffffffffffffffffffffff168152602001908152602001600020819055508273ffffffffffffffffffffffffffffffffffffffff163373ffffffffffffffffffffffffffffffffffffffff167f8c5be1e5ebec7d5bd14f71427d1e84f3dd0314c0f7b2291e5b200ac8c7c3b925846040518082815260200191505060405180910390a36001905092915050565b60005481565b6000600360149054906101000a900460ff16151515610911576040517f08c379a000000000000000000000000000000000000000000000000000000000815260040180806020018281038252600f8152602001807f737461746520697320706175736564000000000000000000000000000000000081525060200191505060405180910390fd5b61091c848484611132565b90509392505050565b601281565b6000600360009054906101000a900473ffffffffffffffffffffffffffffffffffffffff1673ffffffffffffffffffffffffffffffffffffffff163373ffffffffffffffffffffffffffffffffffffffff161415156109f1576040517f08c379a00000000000000000000000000000000000000000000000000000000081526004018080602001828103825260128152602001807f73656e6465722773206e6f74206f776e6572000000000000000000000000000081525060200191505060405180910390fd5b600360149054906101000a900460ff161515610a75576040517f08c379a00000000000000000000000000000000000000000000000000000000081526004018080602001828103825260118152602001807f737461746520697320756e70617573656400000000000000000000000000000081525060200191505060405180910390fd5b6000600360146101000a81548160ff0219169083151502179055507f7805862f689e2f13df9f062ff482ad3ad112aca9e0847911ed832e158c525b3360405160405180910390a16001905090565b6000610acf83836113e2565b905092915050565b600360149054906101000a900460ff16151515610b5c576040517f08c379a000000000000000000000000000000000000000000000000000000000815260040180806020018281038252600f8152602001807f737461746520697320706175736564000000000000000000000000000000000081525060200191505060405180910390fd5b610b65816115cd565b50565b600360149054906101000a900460ff1681565b6000600160008373ffffffffffffffffffffffffffffffffffffffff1673ffffffffffffffffffffffffffffffffffffffff168152602001908152602001600020549050919050565b6000600360009054906101000a900473ffffffffffffffffffffffffffffffffffffffff1673ffffffffffffffffffffffffffffffffffffffff163373ffffffffffffffffffffffffffffffffffffffff16141515610c8b576040517f08c379a00000000000000000000000000000000000000000000000000000000081526004018080602001828103825260128152602001807f73656e6465722773206e6f74206f776e6572000000000000000000000000000081525060200191505060405180910390fd5b6001600360156101000a81548160ff0219169083151502179055507fae5184fba832cb2b1f702aca6117b8d265eaf03ad33eb133f19dde0f5920fa0860405160405180910390a16001905090565b6000600360009054906101000a900473ffffffffffffffffffffffffffffffffffffffff1673ffffffffffffffffffffffffffffffffffffffff163373ffffffffffffffffffffffffffffffffffffffff16141515610da0576040517f08c379a00000000000000000000000000000000000000000000000000000000081526004018080602001828103825260128152602001807f73656e6465722773206e6f74206f776e6572000000000000000000000000000081525060200191505060405180910390fd5b600360149054906101000a900460ff16151515610e25576040517f08c379a000000000000000000000000000000000000000000000000000000000815260040180806020018281038252600f8152602001807f737461746520697320706175736564000000000000000000000000000000000081525060200191505060405180910390fd5b6001600360146101000a81548160ff0219169083151502179055507f6985a02210a168e66602d3235cb6db0e70f92b3ba4d376a33c0f3d9434bff62560405160405180910390a16001905090565b600360009054906101000a900473ffffffffffffffffffffffffffffffffffffffff1681565b6040805190810160405280600381526020017f4b594c000000000000000000000000000000000000000000000000000000000081525081565b6000600360149054906101000a900460ff16151515610f59576040517f08c379a000000000000000000000000000000000000000000000000000000000815260040180806020018281038252600f8152602001807f737461746520697320706175736564000000000000000000000000000000000081525060200191505060405180910390fd5b610f6383836116e2565b905092915050565b6000600260008473ffffffffffffffffffffffffffffffffffffffff1673ffffffffffffffffffffffffffffffffffffffff16815260200190815260200160002060008373ffffffffffffffffffffffffffffffffffffffff1673ffffffffffffffffffffffffffffffffffffffff16815260200190815260200160002054905092915050565b600360009054906101000a900473ffffffffffffffffffffffffffffffffffffffff1673ffffffffffffffffffffffffffffffffffffffff163373ffffffffffffffffffffffffffffffffffffffff161415156110b7576040517f08c379a00000000000000000000000000000000000000000000000000000000081526004018080602001828103825260128152602001807f73656e6465722773206e6f74206f776e6572000000000000000000000000000081525060200191505060405180910390fd5b600073ffffffffffffffffffffffffffffffffffffffff168173ffffffffffffffffffffffffffffffffffffffff1614151561112f5780600360006101000a81548173ffffffffffffffffffffffffffffffffffffffff021916908373ffffffffffffffffffffffffffffffffffffffff1602179055505b50565b600080600260008673ffffffffffffffffffffffffffffffffffffffff1673ffffffffffffffffffffffffffffffffffffffff16815260200190815260200160002060003373ffffffffffffffffffffffffffffffffffffffff1673ffffffffffffffffffffffffffffffffffffffff16815260200190815260200160002054905061120683600160008773ffffffffffffffffffffffffffffffffffffffff1673ffffffffffffffffffffffffffffffffffffffff1681526020019081526020016000205461187d90919063ffffffff16565b600160008673ffffffffffffffffffffffffffffffffffffffff1673ffffffffffffffffffffffffffffffffffffffff1681526020019081526020016000208190555061129b83600160008873ffffffffffffffffffffffffffffffffffffffff1673ffffffffffffffffffffffffffffffffffffffff1681526020019081526020016000205461189b90919063ffffffff16565b600160008773ffffffffffffffffffffffffffffffffffffffff1673ffffffffffffffffffffffffffffffffffffffff168152602001908152602001600020819055506112f1838261189b90919063ffffffff16565b600260008773ffffffffffffffffffffffffffffffffffffffff1673ffffffffffffffffffffffffffffffffffffffff16815260200190815260200160002060003373ffffffffffffffffffffffffffffffffffffffff1673ffffffffffffffffffffffffffffffffffffffff168152602001908152602001600020819055508373ffffffffffffffffffffffffffffffffffffffff168573ffffffffffffffffffffffffffffffffffffffff167fddf252ad1be2c89b69c2b068fc378daa952ba7f163c4a11628f55a4df523b3ef856040518082815260200191505060405180910390a360019150509392505050565b6000600360009054906101000a900473ffffffffffffffffffffffffffffffffffffffff1673ffffffffffffffffffffffffffffffffffffffff163373ffffffffffffffffffffffffffffffffffffffff161415156114a9576040517f08c379a00000000000000000000000000000000000000000000000000000000081526004018080602001828103825260128152602001807f73656e6465722773206e6f74206f776e6572000000000000000000000000000081525060200191505060405180910390fd5b600360159054906101000a900460ff161515156114c557600080fd5b6114da8260005461187d90919063ffffffff16565b60008190555061153282600160008673ffffffffffffffffffffffffffffffffffffffff1673ffffffffffffffffffffffffffffffffffffffff1681526020019081526020016000205461187d90919063ffffffff16565b600160008573ffffffffffffffffffffffffffffffffffffffff1673ffffffffffffffffffffffffffffffffffffffff168152602001908152602001600020819055508273ffffffffffffffffffffffffffffffffffffffff167f0f6798a560793a54c3bcfe86a93cde1e73087d944c0ea20544137d4121396885836040518082815260200191505060405180910390a26001905092915050565b600080821115156115dd57600080fd5b33905061163282600160008473ffffffffffffffffffffffffffffffffffffffff1673ffffffffffffffffffffffffffffffffffffffff1681526020019081526020016000205461189b90919063ffffffff16565b600160008373ffffffffffffffffffffffffffffffffffffffff1673ffffffffffffffffffffffffffffffffffffffff1681526020019081526020016000208190555061168a8260005461189b90919063ffffffff16565b6000819055508073ffffffffffffffffffffffffffffffffffffffff167fcc16f5dbb4873280815c1ee09dbd06736cffcc184412cf7a71a0fdb75d397ca5836040518082815260200191505060405180910390a25050565b600061173682600160003373ffffffffffffffffffffffffffffffffffffffff1673ffffffffffffffffffffffffffffffffffffffff1681526020019081526020016000205461189b90919063ffffffff16565b600160003373ffffffffffffffffffffffffffffffffffffffff1673ffffffffffffffffffffffffffffffffffffffff168152602001908152602001600020819055506117cb82600160008673ffffffffffffffffffffffffffffffffffffffff1673ffffffffffffffffffffffffffffffffffffffff1681526020019081526020016000205461187d90919063ffffffff16565b600160008573ffffffffffffffffffffffffffffffffffffffff1673ffffffffffffffffffffffffffffffffffffffff168152602001908152602001600020819055508273ffffffffffffffffffffffffffffffffffffffff163373ffffffffffffffffffffffffffffffffffffffff167fddf252ad1be2c89b69c2b068fc378daa952ba7f163c4a11628f55a4df523b3ef846040518082815260200191505060405180910390a36001905092915050565b600080828401905083811015151561189157fe5b8091505092915050565b60008282111515156118a957fe5b8183039050929150505600a165627a7a7230582031334f19b016090604b221a248a9507ccc331e16ff1dc8b905bdb6860dfc88dc0029",
  "source": "pragma solidity ^0.4.22;\r\n\r\nimport \"./Crowdsale.sol\";\r\n\r\ncontract KYLPreCrowdsale is WhitelistedCrowdsale, CappedCrowdsale{\r\n    //custom rate for each whitelisted buyer\r\n    mapping(address => uint256) buyerRate;\r\n\r\n    event FixedRateChanged(uint256 rate);\r\n    event PreferentialRateChange(address indexed buyer, uint256 rate);\r\n    event BonusMintedTokens(address indexed who, uint256 tokens);\r\n\r\n    uint256 preRate;\r\n    uint256 fixRate;\r\n\r\n    constructor(\r\n        uint256 _startBlock,\r\n        uint256 _endBlock,\r\n        uint256 _preRate,\r\n        uint256 _fixRate,\r\n        address wallet\r\n    )\r\n        public \r\n        Crowdsale(_startBlock, _endBlock, _fixRate, wallet)\r\n        WhitelistedCrowdsale()\r\n        CappedCrowdsale(8850 ether) \r\n        /**\r\n         * 590 szabo = 0.25 usd @ 420 usd = 1 ether\r\n         * 590 szabo * 15M KYL = 8850 ether\r\n         */\r\n    {\r\n        require(_preRate > 0 && _fixRate > 0, \"Rate is zero\");\r\n        preRate = _preRate;\r\n        fixRate = _fixRate;\r\n        \r\n        KYLToken(token).pause();\r\n    }\r\n\r\n    /** function override */\r\n    function createTokenContract() internal returns (MintableToken) {\r\n        return new KYLToken();\r\n    }\r\n\r\n    function getRate() public view returns(uint256){\r\n        if (super.isWhitelisted(msg.sender)) {\r\n            return buyerRate[msg.sender];\r\n        }\r\n\r\n        return fixRate;\r\n    }\r\n\r\n    function setPreferentialRate(address buyer, uint256 rate) public onlyOwner{\r\n        require(super.isWhitelisted(buyer), \"Address not whitelisted\");\r\n        require(rate != 0, \"Rate cannot be zero\");\r\n\r\n        buyerRate[buyer] = rate;\r\n        emit PreferentialRateChange(buyer, rate);\r\n    }\r\n\r\n    function mintBonus(address who, uint256 tokens) public onlyOwner{\r\n        require(super.isWhitelisted(who), \"Address not whitelisted\");\r\n        require((tokens * 590 szabo) <= (8850 ether), \"Tokens value exceeds cap\");\r\n\r\n        /*\r\n        uint256 value = tokens.mul(590 szabo);\r\n        weiRaised = weiRaised.add(value);\r\n        \r\n        token.mint(who, tokens);\r\n        emit BonusMintedTokens(who, tokens);*/\r\n    }\r\n\r\n    function get() public view returns (bool){\r\n        uint tokens = 15000000;\r\n        uint256 value = tokens.mul(590 szabo);\r\n        return(value <= 8850 ether);\r\n    }\r\n\r\n    /**function override */\r\n    function buyTokens(address who) public payable{\r\n        require(who != 0x0, \"Invalid address\");\r\n        require(super.validPurchase(), \"Invalid purchase\");\r\n\r\n        uint256 value = msg.value;\r\n        uint256 rate = getRate();\r\n        uint256 tokens = value.mul(rate);\r\n\r\n        weiRaised = weiRaised.add(value);\r\n\r\n        token.mint(who, tokens);\r\n        emit TokenPurchase(msg.sender, who, value, tokens);\r\n        \r\n        super.forwardFunds();\r\n    }\r\n    \r\n    /**function override */\r\n    function () public payable {\r\n        buyTokens(msg.sender);\r\n    }\r\n}",
  "sourcePath": "C:\\Users\\Alex\\Desktop\\KAPYTAL\\KYL Test\\contracts\\KYLPreCrowdsale.sol",
  "compiler": {
    "name": "solc",
    "version": "0.4.24+commit.e67f0147.Emscripten.clang"
  },
  "schemaVersion": "2.0.1",
  "updatedAt": "2018-07-13T01:02:36.537Z"
}